:1010000000000420751300005D1300005F13000052
:10101000611300006313000065130000000000006E
:101020000000000000000000000000006713000046
:1010300069130000000000006B1300006D13000036
:101040007571000075B70000857100006F13000016
:101050006F1300006F130000916E00006F1300000B
:101060006F1300006F1300006F1300006F13000078
:101070006F130000917100006F1300006F130000E8
:101080006F1300002D1F00006F1300006F1300008E
:10109000C91F00006F1300006F1300006F130000E2
:1010A0006F1300006F130000ED7100006F1300005C
:1010B0006F1300006F13000000000000000000002C
:1010C0006F1300006F1300006F1300006F13000018
:1010D000C9D500006F1300006F130000F1800000FD
:1010E0006F1300006F1300006F130000000000007A
:1010F000000000006F130000000000006F130000EC
:1011000000000000000000000000000000000000DF
:1011100000000000000000000000000000000000CF
:1011200000000000000000000000000000000000BF
:1011300000000000000000000000000000000000AF
:10114000000000000000000000000000000000009F
:10115000000000000000000000000000000000008F
:10116000000000000000000000000000000000007F
:10117000000000000000000000000000000000006F
:10118000000000000000000000000000000000005F
:10119000000000000000000000000000000000004F
:1011A000000000000000000000000000000000003F
:1011B000000000000000000000000000000000002F
:1011C000000000000000000000000000000000001F
:1011D000000000000000000000000000000000000F
:1011E00000000000000000000000000000000000FF
:1011F00000000000000000000000000000000000EF
:10120000354936480A1A02D0072291438D4634499F
:1012100034480A1A06D00722914381F30988022232
:1012200082F3148830483149314A00F044F831489B
:101230003149324A00F03FF831483249324A00F031
:101240003AF832483249334A00F035F832483349E7
:10125000334A00F030F833483349344A00F02BF871
:1012600033483449344A00F026F8344834490022DF
:1012700000F02CF833483449002200F027F83348B6
:101280003349091A082902DB002202604160314A11
:1012900090471F481F49884205D00268043003B4B4
:1012A000904703BCF7E700208646EC46002000216B
:1012B000294A9047FEE7884207D0521A05D00378A2
:1012C00001300B700131013AF9D17047884202D0E8
:1012D00002700130FAE770470000042000E00320AC
:1012E0000000042000000420D0010100DC000020E8
:1012F00050010020D4130000D41300001ADB0000BA
:10130000D0010100DC000020DC00002094DD0000A2
:1013100094DD000094DD000094DD000094DD000009
:1013200094DD000094DD000094DD0000CD0101009B
:101330004402010050010020500100205001002013
:101340000D23002010230020102300201023002054
:10135000104300209D13000011880000FEE7FEE707
:10136000FEE7FEE7FEE7FEE7FEE7FEE7FEE7FEE755
:10137000704700BF1048804710484FF0070188436E
:1013800085460F4880470F48016841F470010160AD
:10139000BFF34F8FBFF36F8FFFF732BF0A480B4980
:1013A0000B4A884207D0521A05D0037801300B70DF
:1013B0000131013AF9D17047711300000000042097
:1013C0009989000088ED00E0C0DC000008000020E2
:0413D000DC0000201D
:1013D4007047000007B5044B0093044A802300F0D3
:1013E40030F803B05DF804FBF51300005101002050
:1013F4002DE9F84389461446B2B10F4B0F4E03252D
:10140400002743F00108224609EB0701002007F0FA
:1014140099F80744241A48B933782BB14FF47A4029
:10142400C047013D02D13570BDE8F8830123337014
:10143400002CE8D1F8E700BFA0DD00005001002037
:101444007047F0B595B008460D4616461C4605F0A3
:1014540086F91A9A0D920023082205A928460A93B0
:101464008DF82C300C93CDE9086405F095F9079BB1
:101474000293069B039301238DF811309DF81430D9
:1014840003F00302012A1DD1BDF81440059EC3F3E5
:10149400C203C4F383148DF81030A20008230EA9EC
:1014A400284605F079F9C6F3952608AB0093224641
:1014B40002AB0EA9304600F0A7FB284605F053F90D
:1014C40015B0F0BD022AF8D1BDF81640C3F3C2032B
:1014D400A4098DF810300827082C264628BF0826B2
:1014E4003B4632460EA9284605F056F9A41B08AB24
:1014F40002AA31460EA8374400F0EAFB002CEBD1D7
:10150400DBE7000000230428CB604B6098BF044B4A
:10151400044A98BF53F820308A600B60704700BFBC
:1015240094DF000070DF0000CB6800225A7170471E
:10153400C368DB6800225A717047CB6801225A7174
:101544007047C368DB6801225A7170470D4A8A608C
:1015540070B50D4A0D4C0023121BCB604B600B6021
:1015640012091D469A4207D0E6683679FF2E05D047
:10157400854202D1A3680B6070BD0135013310347C
:10158400F0E700BFA8DF00003CDB00001CDB00002C
:101594002DE9F74F164D174C52F8047C0193641B48
:1015A40006468946924624094FF00008444508D16E
:1015B400114A3B460221304603B0BDE8F04F03F028
:1015C400E3B9A968384607F02FFEAB46103510B1D1
:1015D40008F10108EAE7DDED017A17EE90CA5346F7
:1015E4004A465946304603B0BDE8F04F604700BF55
:1015F4001CDB00003CDB0000E0E00000014BFFF7D7
:10160400C7BF00BF011A0000014BFFF7C1BF00BFF5
:101614002D150000014BFFF7BBBF00BF3F150000B5
:10162400014BFFF7B5BF00BF39180000012907B50A
:10163400034604D08168D1F89415890707D50022A0
:101644001146184603B05DF804EB04F0F5BA53688C
:101654000193054B00931368044A022103F094F9A3
:1016640003B05DF804FB00BFCEDD0000C4DD000064
:101674002DE9F3478368D3F89445C4F3400407463F
:1016840034B10022114602B0BDE8F04704F0D4BAE8
:10169400144E154DDFF85880DFF85890DFF858A045
:1016A400AD1B2D09AC4202D102B0BDE8F087F2684F
:1016B400B3681179FF2907D10C4A0821384603F091
:1016C40063F901341036EDE75279002A14BF42461B
:1016D4004A46CDE9002138465246082103F054F920
:1016E400EFE700BF1CDB00003CDB0000F4DD000082
:1016F400E3DD0000EBDD000013DE000030B50A4B33
:101704000A4A0B49D21AD20800239A4201D1052071
:1017140006E031F823500468A54202D1036000209A
:1017240030BD0133F1E700BFD8DB000088DC0000E6
:101734002C0000208368D3F894359B0703D500223E
:10174400114604F079BA024A022103F01DB900BF20
:1017540034DE00008368D3F894359B0703D5002258
:10176400114604F069BA024A022103F00DB900BF20
:1017740034DE000007B5019031B9019A064B53F8E5
:10178400320003B05DF804FB01A8FFF7B7FF00289F
:10179400F3D00020F5E700BFD8DB0000002310B52C
:1017A400CB604B60034B8B600C460121FFF7E2FFDB
:1017B400206010BD70DF0000094B013903EBC0004D
:1017C400032909D8DFE801F00A020406042070475F
:1017D40000797047407970470020704702207047B5
:1017E400D8DB000030B5114C00EB400054F8215018
:1017F4008240072383406A401A400D4B6A40C2F37B
:10180400821044F8212003EB8101C2F3C203834216
:1018140038BF0346C2F34220834202F0070238BFB6
:1018240003469A4238BF1A464A8030BD84000020DD
:101834002C0000202DE9F74F06461D469046002A4D
:101844004FD0CB6828684B4993F80490072207F0DF
:101854001CFCD0B9B8F1010F07D1474A0221304628
:1018640003B0BDE8F04F03F08FB8444F04460A229A
:1018740057F8041B686807F008FC002873D001348B
:10188400052CF4D16B683E4A13E008223D492868D0
:1018940007F0FBFB58B9B8F1010F04462AD0012721
:1018A400394A3A4B9B1A4FEAD30A934645E02B68D0
:1018B400374A0221304603B0BDE8F04F03F064B864
:1018C40018F83530A3420FD200212846FFF752FF03
:1018D400524603460221304603F056F80135BD4214
:1018E400EED103B0BDE8F08F224629464846FFF703
:1018F40079FFF3E7244B254FDFF89CA0FF1AFF087C
:10190400002503F10608EAE7184600210193FFF7D2
:1019140031FF0099202207F0B8FB019B014608B172
:10192400013310E00BEBC3029279A24215D3224695
:1019340019464846FFF756FF01374745D1D255F8B7
:101944002730009300239A45DED155F82730114AF9
:101954000221304603F018F8EEE71846FFF70AFFB5
:101964000D4A0346F4E7B8F1020FE4B2C2D00227ED
:1019740096E700BF45DE00004CDE000080DF00007B
:10198400B7DE000063DE0000D8DB000088DC000066
:101994006BDE0000A3DE000080DE000013460A4672
:1019A400C168FFF747BF000013B504460191A3B116
:1019B40062B9019A0F4B04EB4404072053F8223018
:1019C400A0401840E040C0B202B010BD01A8FFF72B
:1019D40095FE0028EDD00020F6E72AB9019A064BBF
:1019E40003EBC2039879EFE701A8FFF787FE00280D
:1019F400F1D1F3E784000020D8DB0000284B294A0A
:101A04002DE9F04F9B1A4FEAD309CB685B7985B077
:101A140005460E461BB9244A022102F0B5FF234BAA
:101A2400234A244F0821284602F0AEFF224A082107
:101A3400284602F0A9FF00244C4502D105B0BDE8B8
:101A4400F08FF36893F8048001231A462146404638
:101A5400FFF7AAFF01222146834600234046FFF7F1
:101A6400A3FF0328034628BF03235FFA83FA8046B3
:101A740001212046FFF77EFE57F82A3001930F4AD2
:101A84000F4B57F82B100091D04598BF1346029383
:101A94000C4A03460821284602F076FF0134CBE7BE
:101AA40088DC0000D8DB0000D6DE0000E9DE0000A0
:101AB400F5DE000080DF000013DF0000DEE9000037
:101AC400D4DE000050DF000013460A46C168FFF769
:101AD40095BF00001C4A2DE9F843D2F8103407469C
:101AE40088460024194689B9F9680C71A3B9C2F86B
:101AF40010740B60154B164DED1AED08002603F11A
:101B04000709AE420DD12046BDE8F883C9680879BB
:101B1400A04212D00968E6E7DB681A680A601F6011
:101B2400E8E719F83620FB684245314628BF4246AB
:101B34001879FFF757FE0136E3E701340A2CD1D1B7
:101B44004FF0FF34DFE700BF6C030020D8DB000058
:101B540088DC0000037A052B10B50C460FD0437ABD
:101B640023B1084A0849204604F0B9FB0749204636
:101B740004F0B5FB2046BDE8104004F0A5BB002AE4
:101B8400F8D0F3E787E30000C8E90000EEE50000C1
:101B9400C38873B504460D4633B1144A0092144900
:101BA400144A284604F09BFB217A05291CD0637A49
:101BB4004BB1A088FFF700FE0F4B104953F82020CB
:101BC400284604F08CFB227A0D4BA08853F822603F
:101BD4000021FFF7CFFD0B4903463246284602B0E9
:101BE400BDE8704004F07BBB02B070BD87E3000029
:101BF40094E300008CE3000054E30000C8E9000013
:101C0400B8E30000ACE300002DE9F04385B01F46C3
:101C14000C9D002306460C46904695F80C902B73B9
:101C240029463846FFF7B4FFB8F1060F09D8DFE8B4
:101C340008F00412181F283340003146284604F0E7
:101C44004EFB002229463846FFF784FF85F80C90A6
:101C540005B0BDE8F08322683146284604F03FFB16
:101C6400EFE7D4E900233146284604F038FBE8E7DF
:101C7400A36800933146D4E90023284604F02FFBDF
:101C8400DFE7E3680193A36800933146D4E90023B6
:101C9400284604F024FBD4E723690293E368019304
:101CA400A36800933146D4E90023284604F017FBC7
:101CB400C7E76369039323690293E3680193A36805
:101CC40000933146D4E90023284604F008FBB8E722
:101CD40008292DE9F84F80460E4617461C463AD887
:101CE400002593F80C901D7319461046FFF750FF1A
:101CF400DFF884A0DFF884B0AE422ED918F80520AE
:101D04005946204604F0EBFA0135082DF4D1184960
:101D1400DFF86CB0204604F0E2FA4FF0000A5645B2
:101D240020D918F80A507E2D03D8284606F0DEFF85
:101D340000B92E252A465946204604F0D0FA0AF165
:101D4400010ABAF1080FEAD1012221463846FFF709
:101D540001FF84F80C90BDE8F88F5146204604F04A
:101D6400BEFAD1E70349204604F0B9FAE7E700BF19
:101D740082E3000080E300007EE3000078E30000DB
:101D840084E300002DE9F04F9B4693B1234C277860
:101D94004FF0080C4FF000087EB2C646B6450DDD84
:101DA40008F10103734508BFF04682F80080002063
:101DB40024E01B4C4FF0020C2778EBE7A6EB0E0552
:101DC40005EBD5750EEB6504E4B24FFA84F8B8451B
:101DD400E6DA18FB0CF901EB090ABBF1000F0FD08E
:101DE40051F809500368AB4210D312D8DAF8045002
:101DF4004368AB420AD30CD814700120BDE8F08FBD
:101E0400B0F800A031F80950AA45F3E7013C66B2E6
:101E1400C4E701344FFA84FEC0E700BF90070020F6
:101E240091070020134622B10A4603490123FFF714
:101E3400A9BF0A460149FAE792070020E2070020F9
:101E4400044B01221A70044A00231370034A1370CE
:101E5400704700BFF607002090070020910700207C
:101E6400144B07B51A7801460AB3837803F00C00C3
:101E7400082805D00C2815D0104603B05DF804FBE3
:101E840001F10800497803F0C003490658BF023045
:101E9400802B0AD0C02BEFD10DF10701FFF7C2FF51
:101EA4000246E9E701F10E00ECE70022F4E7012223
:101EB400E2E700BFF60700201FB50021039001AA46
:101EC40044F20100CDE9011106F08EFC05B05DF885
:101ED40004FB0000024B4FF43C6043F0010318473D
:101EE40010E4000038B50C4B0C4C4FF40032C3F82E
:101EF400802001254FF48033C4F84833C4F80833F4
:101F04006560FFF7E7FF064BA56000241C60FFF740
:101F1400E1FF044B1C7038BD00E100E000100140FB
:101F24001409002005090020F8B51F4B1F491B6840
:101F34000025C1F84051C1F84451C1F84851C1F8D5
:101F44004C51C1F80051C1F804514BB3D1F80445C8
:101F540017490968641A24F07F442F461A68A2427C
:101F640009D8A41A15441A7CDE691AB11F74D3E97E
:101F740005209047AEB90F4A0F4B11781B788B425E
:101F840005D10133DBB2022B08BF00231370127892
:101F94000A4B43F822500A4B4FF48012C3F8002135
:101FA400F8BD3346DAE700BF1809002000100140ED
:101FB400140900201109002010090020080900203C
:101FC40000E100E02DE9F04FA14AA2491378097815
:101FD400A14D994285B03CD00133DBB2022B08BF3E
:101FE400002313709D4912789D4B0F6853F822000B
:101FF4003B1823F07F4300220B602B6816461446DF
:10200400944613B942B12B6006E0196881420ED997
:1020140002B12B60091A196001272B68DFF848A266
:1020240001934FF00008BEB9DFF844B266E0401AED
:102034000C44D968C3F800C0D3F81CE031B13A1994
:1020440022F07F42C3E90121DE611E46012273466C
:10205400D7E700263746E0E73446F6697F4A6368E7
:102064001268DFF810C2A068991A21F07F41614517
:1020740000F2A68001442160012222742A68002310
:10208400C4E90133E361002A40F0A3802C60CAE76D
:102094005A1C9BF80210D2B291428BF8002004BF64
:1020A40000228BF80020182202FB03B31A799C68E3
:1020B400022A1CD0032A12D0012A1FD1207CE8B99D
:1020C400D3E90312A2605A69E2609A69654BA2617E
:1020D4001B78002B0CBF0B4603466360BEE700224F
:1020E4002B681146002B67D142B12B6006E02968AA
:1020F4000A468946002A5AD1002323749BF80030EB
:102104009BF801209A42C3D12B68B8F1000F04D187
:10211400019A9A4201D1002F43D0002B73D0D3F8F7
:1021240000A0514D4D4BD5F804751C68DFF848816B
:102134003E1B98F8003026F07F4603369BB94FF4D7
:102144008033C5F84433C5F80433484B4FF40032A8
:102154004FF00109C3F880211A60C5F80090FFF719
:10216400B9FE88F80090B2452CBF5444A41924F059
:102174007F44C5F84045D5F80435DB1B23F07F4385
:10218400E41B033324F07F44A3420AD9D5F8043571
:10219400C5F84035FFF79EFE344B4FF40032C3F8C8
:1021A4000021304B00221A7005B0BDE8F08F944234
:1021B4002CD09146D2699DE719740122DB6991E71D
:1021C400D31A23F07F43834234BFC31A002323600E
:1021D40052E721681368994213D8591A1160E261D1
:1021E40054E7091AD8691A4638B103461868884270
:1021F400F7D3401A1860184613462160E061DC6189
:1022040011E71346F2E7FFF76DFECAE74C4511D11B
:10221400CB692B6073B9DFF844E00120CDE90212E9
:10222400CAF80800CEF800300E4B1870FFF752FEC3
:10223400DDE902121368D269C9F81C2012B11068D2
:10224400034413602B68994218BF4FF0010853E709
:102254001009002011090020180900201409002089
:1022640008090020040900200010014000E100E0FA
:10227400F8070020FEFF7F000509002043681B6863
:1022840018470000024B5B6803B11847704700BF52
:102294001C090020020600F00F034CBF024803484B
:1022A400DB001844704700BF280900207009002093
:1022B40008B5FFF7EFFF016009B14B681968416089
:1022C40008BD0000024B01465A681868104700BF59
:1022D400700900200378052B0CD1084AD2F8843405
:1022E400D2F8802412F0FF0F04D1054ADBB2052B8B
:1022F40008BF1046034B1B68184700BF007002401C
:1023040030E400001C090020012806D010B1022886
:1023140005D070470348FFF7DDBF0348FBE70348D8
:10232400F9E700BF24E4000028E400002CE40000E6
:10233400FFF7D0BF0148FFF7CDBF00BF34E4000072
:1023440038B5831EDBB2062B98BF1A4A1A4C98BFC5
:10235400D25C2378A3F10203DBB288BF0022062BF0
:102364009ABF1449CB5C00239342054603D0B2B113
:10237400124804F05FFC022D14D0A5F1080042427B
:1023840042412378022B0FD0A3F108014B424B4169
:10239400934202D052B105F007FC257038BD04F019
:1023A40073FCE8E70122ECE70123F1E705F0F2FB17
:1023B400F3E700BF16E40000C1090020E400002098
:1023C4002DE9F04F87B00026054689469246984687
:1023D40002966B6800225C682946012302A8A04784
:1023E40040B98DF80600049004460746BE4203D85F
:1023F40005202AE00136ECE76B680DF10602D3F8FC
:1024040004B02946012304A8D8476B680DF10702DC
:10241400D3F804B02946012304A8D8479DF807300F
:102424004B459DF8063015D1544511D1109A1360CF
:1024340088F8003088F801906A68023B546829469D
:1024440008F1020204A8A047002007B0BDE8F08FFD
:102454000134E4B26A68023BD2F804B0294600228F
:1024640004A8D8479DF806301F44BFE72DE9F74379
:1024740005462E4805F0AEFB0446002836D12C4B09
:1024840018702C4B18602C4B0146186048222B48BE
:1024940006F075FE48222146294806F070FE294BB5
:1024A40045BB294A1D72C3E90025002004F000FC45
:1024B40018B1852801D0FFF7FFFC244E96F8089048
:1024C400002506F10908ECB2A14504D904EB440443
:1024D40014EB080427D10B2301A91C488DF8043000
:1024E400FFF7CCFE044608B105F042FA204603B0DB
:1024F400BDE8F08395E8070083E807000028D4D1FD
:10250400114A1A60D1E73146E05CFFF7D1FE6378E7
:10251400FAB2934205D9A3781344DC4207F10107C8
:10252400F1D10135CFE70027F1E700BF35230000E3
:10253400C1090020B8090020BC0900202809002096
:10254400700900201C0900208128000060E40000BC
:1025540010B505F0E1FA10B90823184610BD05F0CE
:10256400E3FA04460028F7D1044804F0BCFB034610
:102574000028F2D0FFF7A0FC2346EEE720E4000099
:1025840005F000BA05F0B0BE4FF08043D3F838240C
:10259400920702D50348FFF79DBED3F83824D1072C
:1025A400F4D4704735E4000007B5822301A88DF800
:1025B4000430FFF78FFE03B05DF804FB2DE9F74309
:1025C40000F1090490F80890064600252746EBB26E
:1025D4004B4532D224B394F80180002106E0E05C3C
:1025E400FFF758FE03680131002B37D1CBB2984571
:1025F40003D9A3780B44DC42F1D101350334E6E777
:102604003146E85CFFF754FE6B785FFA88F2934238
:1026140005D9AB781344DD4208F10108F0D1013447
:10262400337AE5B2AB4203D905EB45057D1901D1F7
:102634000B4B05E04FF00008E6E70024F0E71368D1
:102644001A68002AFBD11E6001A90B2330468DF8BD
:102654000430FFF713FE03B0BDE8F0831120FAE75E
:10266400B8090020024B1878003018BF01207047C9
:10267400C0090020030710B5044604D405F0CCFBC0
:10268400204605F0F1FE2046BDE8104005F09EBE50
:1026940005F06ABE014B1868704700BFB8090020F6
:1026A400F0B50A4B1B687BB11D7A00229E1DD4B283
:1026B400A54201D81B68F5E7013202EB4207F75D3A
:1026C4008742F4D101B10C701846F0BDB80900205E
:1026D4001146FFF7D3BD08B500F00F03082B07D848
:1026E400FFF7D8FD006818B1BDE80840FFF7C6BD84
:1026F400102008BD38B5054B05461C6804B938BD23
:1027040029462046FFF7BAFD2368F6E7B8090020FA
:1027140038B5074B05461C680CB9062038BD294658
:102724002046FFF7ABFD0628F8D12368F3E700BF86
:10273400B809002038B504460D4605F08EFA48B1B4
:10274400054B1B78022B05D129462046BDE83840AD
:1027540005F086BA082038BDC109002038B5044602
:102764000D4605F07AFA48B1054B1B78022B05D1CA
:1027740029462046BDE8384005F0E6BA082038BDB1
:10278400C1090020F8B543689B6805460C46164607
:1027940013B92EB1072002E098470628F9D0F8BDF6
:1027A4002B7AA34213D9093504EB44042C446778EB
:1027B400F3B29F4201D80020F1E762789A4208D927
:1027C400A219A378D05CFFF755FF0136F0E77378C0
:1027D400FFDE00231B78FBE74368DB6870B5054622
:1027E4000C4603B198472B7AA34213D9093504EB5D
:1027F40044042C4400256678EBB29E4200D870BD98
:1028040062789A4209D96219A378D05C05F0ACFDCC
:102814000135F1E700235B78FFDE00231B78FBE73B
:1028240043681B6903B118471846704770B5084BD5
:102834001C6804B970BD267A0025E9B28E4201D81D
:102844002368F5E700222046FFF79CFF0135F4E7F3
:10285400B809002070B5084B1C6804B970BD267A0D
:102864000025E9B28E4201D82368F5E72046FFF738
:10287400B3FF0135F5E700BFB809002038B5047887
:10288400092C054620D023D8032C00F0BC8012D894
:10289400012C00F0A68040F28D800320FFF750FD4C
:1028A4000220FFF7EFFC2846FFF724FF2846BDE887
:1028B4003840FFF707BD052CF8D0C0F0B380062CD4
:1028C40000F0BF80082C13D12046FFF7DBFC95E015
:1028D400812C0ED005D80F2CF6D0802C44D00A2C95
:1028E400F1E7832C4CD021D3842C53D0852CDDD01C
:1028F40038BD5E48FFF7E6FC5C48FFF7FBFE0D20A1
:10290400FFF7C0FCFFF7A6FF00F031FF584B1B6830
:1029140053B9584B187A00F0010005F0D3F80120A0
:10292400BDE83840FFF70CBD0120F4E7FFF792FF44
:1029340005F0BCFC0020FFF703FD4F48FFF7DAFE6B
:102944004D48FFF7BFFC0E20FFF79CFC4B4B1B7858
:10295400023BDBB2062BCBD8494AD35C002BC7D051
:10296400BDE8384004F090B9444B1B78062B05D0E1
:10297400072B01D0052BBBD10220D1E70820CFE7DC
:102984003E4B1B78032BB3D105F0C8FC0028AFD015
:102994000420C5E7394B1B78032B05D105F0BEFC99
:1029A40010B10420FFF7CCFC05F0C8F800289FD034
:1029B4000620B5E7314B1B78032B01D0082B02D13D
:1029C4003048FFF75BFF0020FFF75CFC284B1C68D6
:1029D400002C8DD020462946FFF750FC23685C6804
:1029E400F6E7FFF737FF00F0B9FE0220FFF7A8FC77
:1029F4002046FFF747FC2846FFF764FC2846BDE85D
:102A04003840FFF777BE1D4B1B78082B06D10220F8
:102A1400FFF796FC05F0D2F80320EAE70520FFF75C
:102A24008FFCF9E70320FFF72DFC1748FFF74AFC5A
:102A34001548FFF75FFE114B1B78062B9CD107202E
:102A44006EE78078FFF726FC2946436800689847BC
:102A540000283FF44DAFA87802073FF449AF0307BD
:102A64003FF546AFBDE8384005F0B0B936E40000A4
:102A7400BC0900201C09002037E40000C109002023
:102A840016E4000038E4000039E40000C36903B12F
:102A940018477047036800221A845A62DA62C3E94D
:102AA4001E22C3E9202203F134025A677047CA691F
:102AB4009A4210B543600CD38C690460086FD21A33
:102AC40018441C440867101C8C61CA6118BF01209B
:102AD40010BD01F1280202608B670020F8E7CA6983
:102AE40043609A4227BF8A69026001F128020260AA
:102AF40026BF0B67CB618B6700207047F0B5BB4DD9
:102B04000C7A2C700468B4F5517F00F0CA8200F28C
:102B1400DA8040F22636B44200F03E826DD840F2AC
:102B24001636B44200F0FB8126D840F21336B44284
:102B340000F0DA81B4F5457F0BD2002C00F0C2819D
:102B440040F21236B44200F0C581002303601846F7
:102B5400BFE100F0D78140F21536B442F5D100242C
:102B64000AB106791655013402269C420671C0F05A
:102B7400D78140F21633AAE140F21936B44200F08C
:102B8400E78114D840F21736B44200F0D481B4F58A
:102B9400467FDAD100240AB106791655013400269D
:102BA4009C420671C0F0D58140F219338FE1B4F52F
:102BB400487F00F0E48140F22136B442C5D10024BC
:102BC4000AB1067916558A4E0F7A3678DFF824C290
:102BD400B74204F1010440F2548301F1090706EB02
:102BE400460607EB060E9C42BE5DCCF800E006717B
:102BF400C0F0D38140F2263369E140F23336B44267
:102C040000F00982B4F54D7F38D2B4F54B7F00F063
:102C1400DE811CD840F22736B44200F0C981B4F5F5
:102C24004A7F92D100240AB106791655714E0F7D60
:102C340036683678B74204F1010440F0E181022697
:102C44009C420671C0F0C4814FF44B733FE140F2E3
:102C54002D36B44200F0C78140F22E36B4427FF4E0
:102C640074AF00240AB10679165501340026A34234
:102C7400067100F2EA814FF44F7328E1B4F54F7FF7
:102C840000F0E28106D8B4F54D7F00F0D08140F227
:102C94003536E3E740F24236B44200F0EA8100F20E
:102CA400F48140F24136B4427FF44FAF00240AB1BC
:102CB40006791655013424269C420671C0F0DA8147
:102CC40040F2423303E140F25636B44200F05382FC
:102CD4006AD8B4F5537F00F01C8232D840F24936EA
:102CE400B44200F0FD8115D840F24536B44200F0FC
:102CF400E481B4F5527F7FF428AF00240AB1067949
:102D04001655013424269C420671C0F0EA8140F233
:102D14004933DCE040F24A36B44200F0ED8140F23F
:102D24004B36B4427FF411AF00240AB1067916552C
:102D340001348E7D06719C42C0F0EC814FF45373D4
:102D4400C5E040F25136B44200F0FC8115D840F29F
:102D54004F36B44200F0E981B4F5547F7FF4F5AE08
:102D640000240AB106791655013402269C420671E4
:102D7400C0F0E98140F25133A9E040F25236B44246
:102D840000F0EC8140F25536B4427FF4DEAE00240C
:102D94000AB106791655013424269C420671C0F006
:102DA400EB8140F2563392E040F27236B44200F0C6
:102DB400278246D840F25936B44200F0F5811BD838
:102DC40040F25736B44200F0E281B4F5567F7FF406
:102DD400BCAE00240AB10679165501348E7D067105
:102DE4009C42C0F0E28140F2593370E0C4090020F3
:102DF400C3090020C809002040F26D36B44200F037
:102E0400F28140F26E36B4427FF49FAE00240AB1E0
:102E140006791655AF4EB04F36683F7896F801C024
:102E2400BC4504F1010440F2318296F802C03E44EC
:102E34009C4216F80C600671C0F0E38140F27233D4
:102E440045E040F28336B44200F0FA81B4F5617F84
:102E540014D240F27736B44203D0B4F55F7F7FF4E6
:102E640074AE00240AB10679165501344026A342F3
:102E7400067100F2E68140F2833328E040F289369D
:102E8400B44200F0F48140F28E36B44200F0EF8197
:102E9400B4F5617F7FF459AE00240AB10679165562
:102EA4008C4E0F7D36683678B74204F1010440F049
:102EB400D4810E6A9C4236780671C0F0D98140F202
:102EC400893304E00824047123B940F21233036007
:102ED4000120F0BD0AB1047914700B24012B047194
:102EE4000ED840F21333F2E700240AB106791655DE
:102EF40001340E7D06719C4205D34FF44573E6E719
:102F04000124F2E700240AB1067916550134022699
:102F14009C420671FFF424AE40F21533D7E7002437
:102F24000AB106791655013402269C42067103D370
:102F340040F21733CBE700240AB106791655013461
:102F44004E7E06719C42FFF426AE4FF44673BEE7F4
:102F540000240AB106791655604E002701343770F3
:102F64005E4E37782E78B74202D340F29933AEE7FB
:102F74000926A342067103D84FF44873A7E7002437
:102F84000AB106791655013404269C420671FFF4F1
:102F940017AE40F221339AE700240AB10679165598
:102FA400013400269C42067103D340F227338EE796
:102FB40000240AB106791655464E366801347678EF
:102FC40006719C42FFF42FAE4FF44A737FE700244E
:102FD4000AB106791655013402269C42067103D3C0
:102FE40040F22D3373E700240AB1067916550134F3
:102FF4004E7E06719C42FFF435AE40F22E3366E7F6
:103004008F7DB7427FF432AE0A269C42067103D309
:1030140040F233335BE700240AB1067916550134D4
:1030240000269C42067103D34FF44D734FE70024EE
:103034000AB106791655013400269C420671FFF444
:1030440011AE40F2353342E700240AB10679165531
:10305400204E0F7D36683678B74204F1010440F003
:10306400A88005269C420671FFF421AE40F241334C
:103074002DE700240AB106791655013400269C4236
:10308400067103D340F2433321E700240AB10679E1
:103094001655013410269C42067103D34FF4517324
:1030A40015E700240AB106791655013401269C421D
:1030B400067103D340F2453309E700240AB10679C7
:1030C4001655013405269C420671FFF417AE4FF4E1
:1030D4005273FCE6C8090020C5090020C30900207A
:1030E40000240AB106791655013401269C42067162
:1030F40003D340F24A33EAE600240AB106791655AE
:10310400013403269C420671FFF40FAE40F24B33A8
:10311400DDE600240AB106791655013404269C42E2
:10312400067103D340F24F33D1E600240AB1067985
:103134001655013424269C420671FFF412AE4FF456
:103144005473C4E600240AB10679165501340226E4
:103154009C42067103D340F25233B8E600240AB10C
:1031640006791655013405269C420671FFF410AE0B
:1031740040F25533ABE600240AB106791655013402
:1031840006269C42067103D340F257339FE600247F
:103194000AB10679165501340E7D06719C42FFF47E
:1031A40019AE4FF4567392E600240AB10679165507
:1031B4000134374E36687778364E3770364E0027EE
:1031C4003770354E3778334E3678B74204D3334FA1
:1031D4003E7801363E70C3E60726A342067103D843
:1031E40040F26D3373E600240AB1067916550134B2
:1031F40005269C420671FFF40AAE40F26E3366E681
:1032040000240AB106791655214E0F7D36683678AA
:10321400B74204F1010407D103269C420671FFF46E
:1032240021AE40F2773352E68F7DB7427FF41EAE73
:1032340002269C420671FFF415AE4FF45F7346E616
:1032440000240AB106791655013400269C42067101
:10325400FFF423AE4FF4617339E68F7DB7420BD18F
:1032640000269C42067103D340F28E332FE60024DD
:103274000AB1067916550134074F3E7801363E707F
:103284009FE70023CCF800301B78FFDE0023FBE728
:10329400C8090020C2090020C5090020C309002074
:1032A40010B5044658B90868037B202B09D100F1F6
:1032B4000E010722183005F039FF204610BD032007
:1032C400FCE70620FAE7037A012B08D9427B012A9E
:1032D40000F10C0306D9827B13445878704700230D
:1032E4005B78FFDE00231B78FBE700002DE9F04745
:1032F4000B7888B006460D460E2B17D8DFE803F08E
:103304000A080A0A160C9F161608160A0A0A0A0060
:10331400FFF7C0FB002427E04A78D1094FEA521393
:1033240030D013F0030303D0012B21D006241BE07B
:1033340002F01F02012AF9D1AC78062CF6D105A8B7
:10334400039300F08DFC03AB009307460346EA7831
:1033540029793046FFF734F8052805D0039A394611
:10336400681C00F01FFA0446204608B0BDE8F08748
:10337400AB78212BDAD1B5F80720072AD6D101681A
:103384001831EDE7012BD1D1AB780768202B36D06B
:10339400222BCBD1B5F80730002BC7D197F82020CA
:1033A400B5F803303B8402F0010203F001039A42B2
:1033B4009CB2AFD0002C14BF02210321FFF766FB9F
:1033C400002CA7D1337A012B40F2CC80737B06F119
:1033D4000C02002B00F0C880B37BD05C04F04AFEE2
:1033E4003046FFF770FF04F045FE07F134037C62BA
:1033F400FC62C7E91E44C7E920447B67B4E7B5F81B
:103404000730072B92D100244FF4E462BA8120469E
:103414000E37CDE90573079400F098FC204605A902
:10342400FFF788F9044630B9514B03A9CDE90336B7
:1034340000F0A6F90446002000F08AFC94E7037A21
:10344400002B00F09380837A00F10901002B00F037
:103454008B80C27AAB788A5C9A423FF45BAF1B06DE
:10346400EC780AD524B1032C0CBF002403247BE799
:1034740001213046FFF70AFB76E7012C3FF44AAFFF
:1034840067B2002FEFD10568FFF71DFF394BAC6A17
:10349400059305F10C0381460693BCB9EB6FAC6749
:1034A400C5E91F43EB6A73B105F12C0292E80300EE
:1034B40005F1240383E80300EC6205A94846FFF7FD
:1034C4004DF9044600E06C620021D2E7D5F884A0EF
:1034D400686A544528BF544605F1340822464146DB
:1034E40005F024FEEB6F2344C5E91F73AAEB040324
:1034F400AB67EB6A44446C672BB305F1240405F114
:103504002C0898E8030084E80300AB6FEF62686A54
:103514001BB96B6A002BD0D116E0AA6A696F9A4274
:1035240014D805F003FEAB6AAA6FC5F88030D21A2E
:10353400AA676A6F1A446A6700213046FFF7A6FA41
:10354400EB6A002BDDD16B620024BDE71A4605F05F
:10355400EDFDAA6FAB6AEA679B1AAB626B6A134410
:103564006B62D6E76378FFDE1B78FCE75B78FAE7EB
:10357400A5320000B32A00001FB503681B8CDC07CA
:1035840014D5037A012B13D9437B00F10C0493B1B6
:10359400837BE05C9306CDE901120CBF0123002379
:1035A40001A90393FFF7C6F804B010BD0820FBE798
:1035B40000235B78FFDE1B78FCE70368D3F8800008
:1035C400704700002DE9F3410468238CDB070646AD
:1035D4008846174630D5002000F0B8FBA56FBDB172
:1035E400BD4228BF3D46616F2A46404605F09EFD18
:1035F400A36FC4F880505B1BA367636F2B4463679E
:103604000024002000F0A4FB204602B0BDE8F081B5
:10361400636A7BB9C4E909873046FFF754FE0C346A
:10362400064B019469460093FFF798F8041E08BFFF
:103634009224E6E71124E4E70824E5E7E32A0000FE
:10364400002070472DE9F04F4B6885B082460C4648
:1036540000925BB90B681B681B683BB98D682DB978
:10366400C0E90055284605B0BDE8F08F04F0AAFB78
:10367400009BE7689F4228BF1F464FF0000904F1F2
:10368400100383464E46012501934FB3A368616836
:10369400BB42984628BFB84629B342460BEB060006
:1036A40005F044FD00236360A268E368A2EB08020E
:1036B400A3EB0803A260E360A7EB0807464402BB40
:1036C400B9F1000F03D02268126812682260D3B1E6
:1036D4002368D3B963601EB1009BB34288BF002541
:1036E400CAE900B6BEE7002BDED0216801984B681A
:1036F4000BEB0602D3F804904346C8474FF0010988
:10370400D2E7002BC1D10025BFE700230293216833
:103714004B680022D3F8048002A80123C04708B9EB
:103724002061B2E7A3680133A360F0E7084B1A787D
:1037340082420CD0052818BF064A187018BF1378A7
:1037440005481CBF23F002031370FFF797B87047B6
:10375400D8090020F409002070E4000008B5002016
:10376400FEF788FF8020BDE80840FEF783BF08B558
:103774000020FEF78DFF8020BDE80840FEF788BFDB
:1037840038B505460C4604F0C1FBA84205BFD4E990
:103794000001034B1020C3E9000108BF002038BD1D
:1037A400F80900207FB5C38893421D4628BF1546FB
:1037B40093420E46144620D9802004F049FAB4FB03
:1037C400F0F303FB1040B0FA80F0400903900020AE
:1037D400CDE9016500F0BAFA01A98020FEF7AAFF3D
:1037E400044620B906498020FFF7CAFF044600209A
:1037F40000F0AEFA204604B070BD0020E6E700BF3A
:10380400A4E400002DE9F04F0C78062C87B00E4696
:1038140000F0F88120D8022C3DD003D8012C32D0FE
:103824000624E9E1032C32D0052CF9D10DF10D0069
:10383400B04D8DF80C4004F0FFFA00232B609DF886
:103844000D3003F01F07032F00F28481DFE817F027
:103854002D001D01790165000D2C00F0C18107D8F0
:103864000B2C18D00C2CDBD10020FFF75FFF12E0EB
:103874000E2C00F0C581852CD2D19F4B1B78032BD5
:10388400CED1042000E00320FFF750FFC8E79B4897
:1038940000F0DDFB08B90024AEE1994B01221A6067
:1038A400BFF36F8FBFF34F8FF5E7C3F34116A6BB8A
:1038B400DB099DF80E1000F0A280062916D0082915
:1038C40000F0908049BB8F4C0222204605F057FC43
:1038D400237843F0010222708B4A1278920744BF86
:1038E40043F003032370022286490EE09DF8103052
:1038F400022B16D0032B65D0012B0ED1BDF813304B
:10390400002B00F06A81814912220DF10D00FFF7AE
:1039140049FF0446062C40F0258103A8FEF7F8FE73
:103924000DE1BDF81330002B00F05781092B28BF9F
:1039340009239846FEF7AEFE4FF0090904465CBB26
:10394400704C73494246204605F0F0FB2771A4F8F9
:103954000290FEF787FE18B1E37943F02003E37188
:10396400FEF798FE6B4BC3E90004C3F80880BDF86A
:103974001320DA60002000F0E9F967498020FEF79F
:10398400EDFE044620B965498020FFF7F9FE0446A0
:10399400002000F0DDF9BDE701964FF0000A6368EE
:1039A4000022D3F804B02146012301A8D84730B936
:1039B400237A1F442368D144FFB21C68BFE70AF18D
:1039C400010AECE7BDF81330002B00F00681BDF8C6
:1039D40011109DF80F0000F093F9014600289CD0C7
:1039E400027892E7444A1278052A03D1454A1370B3
:1039F400012279E7042A90D1424B1E70F8E703298B
:103A04000FD009292BD0012987D1BDF80F30012B04
:103A140083D1FEF727FE60B13B4A137823F00203FB
:103A24000FE0BDF80F30012B7FF477AFFEF71AFEDD
:103A340018B90F2404F067FADEE0334A137843F030
:103A4400020313702B68002B00F0C78004F05EFAA9
:103A5400044600287FF41FAF04F014FACCE0264B90
:103A64001B78043B012B01D90824E3E79DF80F30B0
:103A74002BB9FEF7EFFE0420FFF758FEE2E7012B17
:103A840056D1FEF7D3FE0520F6E701A99DF81100F3
:103A9400FEF706FE074608B91024CBE703AA9DF8F3
:103AA4000410FEF715FE062804465BD19DF80D2090
:103AB40012F0600FBED1104B9DF8041018789DF8D9
:103AC4000E30D6092CD073B10A2BB3D10528CBD133
:103AD4003846FEF7A5FE0B49324608700DF10D007D
:103AE400FFF760FE2BE00528BED106490B800222B9
:103AF400F4E700BFF8090020D8090020000A0020DC
:103B04005C700240040A0020F409002090E40000E4
:103B140071E40000DC090020BCE40000A4E400001F
:103B24000B2B87D105289FD1BDF80F30FF2B01D96E
:103B340007247FE79DF80F203846FEF723FE04464E
:103B440010E09DF81100070706D19DF80D3013F021
:103B5400600F0BD006246DE703A9FEF7BCFD062811
:103B64000446F2D0002C3FF46DAF63E79DF80E20BD
:103B7400364B9DF811401B78012A1CD082B1032AD0
:103B8400E8D12007E6D4BDF80F20002AE2D1052BA6
:103B940002D021077FF468AF204604F017F951E7FB
:103BA400052B02D026077FF45FAF204604F01AF9F4
:103BB400274908809BE72207CCD4BDF80F20002AB0
:103BC400C8D1052B02D023077FF44EAF204604F062
:103BD40023F9204604F048FC34E704F091F95AE64E
:103BE4004FF08043D3F8384414F0010401D002208C
:103BF4003BE60120FFF79AFD204607B0BDE8F08FB1
:103C0400012032E6C8780328F6D0124D2B68DBB1C8
:103C140000222A6069689847044600287FF40AAFA6
:103C24002B6823B1B378002B7FF435AE14E70A4B2D
:103C34001B68082B7FF42FAE084B1B68002B3FF446
:103C44002AAE04F05DF9D7E70E24F3E6D809002084
:103C5400040A0020F809002030010010340100108B
:103C640008B1402303600148704700BF040A0020E4
:103C740070B54FF0805286B0D2F8A830D2F8A420A4
:103C840000926FEA83436FEA93439BB20A4A0B4E56
:103C94000D2102A805F0C2F902AD002402A805F026
:103CA400EAFA844201D306B070BD15F8013B06F868
:103CB400013B0134F2E700BFC4E40000440A0020E1
:103CC40010B50E4B53F8204023780BB9A01C10BD3F
:103CD4000020FFF7C5FF013C00235A1CA15C39B941
:103CE400DBB201335B00DBB243F440730380EEE7E5
:103CF400D3B220F813101346EFE700BF08E5000025
:103D040008B9FFF7DDBF052807D8054A105C20B1C4
:103D1400044B53F82030002BF3D10020704700BF30
:103D240020E5000008E5000072B6024A136801337A
:103D340013607047540A0020034A1368013B136060
:103D440003B962B6704700BF540A0020FFF7ECBF06
:103D5400FFF7F2BF90B200F036B90B0710B5044676
:103D640007D504F091FF20B12046BDE8104004F0CF
:103D7400C3BF204610BD2DE9F04F87B08A461546D3
:103D84000293064618B9012007B0BDE8F08F002958
:103D9400F9D0029B002B00F0118102F004030C46C1
:103DA4000493B046294618F8010BFFF7D6FFC7B2B3
:103DB4003F2F22D00ADCCFB12A2F36D0294614F85F
:103DC400010BFFF7CAFF87421FD0DCE75B2F7CD0D3
:103DD4005C2FF3D1EB07F1D429467078FFF7BDFFD0
:103DE400C7B2002FEAD006F10208E7E7E906207817
:103DF40038D52F2836D10020C6E72378002BC2D02F
:103E04002F2B04D1AA07BED401344646C9E72E2B72
:103E1400FAD1049B002BF7D05445B4D0AB07F3D5AB
:103E240014F8013C2F2BEFD1ADE770782946FFF74A
:103E340094FFC1B22A2919D023782E2B09D1049BCF
:103E44003BB154459FD0AF0703D514F8013C2F2B49
:103E540099D079B9AE07CED5ED06CCD42F21204622
:103E640005F003F9003018BF01208DE7294618F842
:103E7400010FDCE72F2901D1A8071FD4029B25F0ED
:103E840004095F1E05F0020AA34629469BF80000B8
:103E9400FFF763FFC6B20134002E3FF474AF3B4614
:103EA4004A4659464046FFF766FF01287FF46CAF47
:103EB4002F2EE9D1BAF1000FE6D064E7204605F0D1
:103EC400D4F804460028A0D15DE7207800283FF408
:103ED4005AAF2F2802D1A9073FF555AF2946FFF75E
:103EE4003CFF8346B8F1000F3FF44DAF7378212BAC
:103EF40001D05E2B25D1023601230122019305EA6C
:103F040002034FF0000903933746294617F8010BC3
:103F14000592FFF722FFC3B25D2B059A14D112BBA1
:103F2400019B4B453FF42FAF002F3FF42CAF7A1C7D
:103F340004D123785B2B7FF426AF47460134B8467F
:103F440063E746460023D8E72F2BF2D05C2B07D13A
:103F5400039A42B929467078FFF7FFFEB71CC3B233
:103F6400002B3FF410AF3A782D2A21D129467878D6
:103F74000593FFF7F2FEC0B2059BC8B15D2817D0C8
:103F84005C2807F102060BD1039A4AB92946B8788E
:103F9400FFF7E3FEC0B200283FF4F5AE059BFE1C1C
:103FA4009B4503DB8345D8BF4FF001090022ABE7F3
:103FB4003E469B4508BF4FF00109F7E70320E3E6BF
:103FC4004023FFF7D8BE07B5ADF8000001916A465B
:103FD400002144F2020004F007FC03B05DF804FB86
:103FE40050E8003F43EA010240E8002C9CF0000F37
:103FF400F6D11046704750E8002F02EA010340E86A
:10400400003C9CF0000FF6D11046704750E8003F8A
:1040140003EA010240E8002C9CF0000FF6D11046A0
:10402400704750E8003F03EB010240E8002C9CF08D
:10403400000FF6D11046704750E8003FA3EB010291
:1040440040E8002C9CF0000FF6D110467047002188
:10405400FFF7D1BF2DE9F0478368D3F89445C4F343
:10406400400488B0074634B10022114608B0BDE8C8
:10407400F04701F0E1BD012906D91E4A022108B02A
:10408400BDE8F04700F080BC1B4D1C4EDFF870A06B
:104094004FF06408A146761B1C23B6FBF3F6A64238
:1040A40005F11C0502D108B0BDE8F08755F81C0CD9
:1040B40055E90623017900689A1A1B1ADBB20393A7
:1040C40008FB03F3B3FBF2F3CDE9019335F8043CA9
:1040D4000093CDE9061255F8083C11FB08F1384667
:1040E400B1FBF2F1CDE904215246082100F04CFC69
:1040F4000134D4E750E5000088DC0000C0DC000097
:1041040063E5000010B590B1D0E9012301689B1A62
:10411400DBB20A60013BDBB2FF2B026802D1002054
:10412400107110BD11684C1C14600B70F2E70E2066
:10413400F7E738B504460020FFF708FE22686368F5
:104144001168994213D9481E106011F8015CE368A4
:10415400218B01FB0535A36811791B1ADBB2994247
:1041640000D213710020FFF7F3FD284638BD002567
:10417400F8E738B5054600200C46FFF7E7FD2A6846
:104184001368591C1160E968641A298BB4FBF1F4B3
:104194001C700020BDE83840FFF7DABD30B18A68F2
:1041A400B2F8943543F02003A2F89435704743687D
:1041B40010B59C686068036801219B689847A368F0
:1041C40010B903221A7010BD0422FBE709680068C5
:1041D40005F02AB808B105F04EB8704710B504468A
:1041E400FFF7F8FF23462044834201D1002010BD8D
:1041F40013F8012B3F2A01D02A2AF5D10120F6E732
:1042040038B58368054600681C8DFFF7E3FFAB688B
:10421400DA8B2044B0FBF2F302FB1300B0FA80F017
:10422400400938BD10B584680068FFF7D3FF238DBB
:10423400E28B84F82000C0B20344B3FBF2F102FB2A
:1042440011330133A382E38C013118442183B0FB81
:10425400F2F3591C02FB130301336183E38204F17B
:10426400140010BD38B5836805460068DC8CFFF780
:10427400B1FFAB68DA8B2044B0FBF2F302FB13000E
:10428400B0FA80F0400938BD2DE9F843089C1E4679
:104294000F46E1B9184D194C641BE408944204D943
:1042A400174800EB8208BC4201D100230AE06B6886
:1042B400D8F80000196804F0B7FFA946083520B9FA
:1042C400D9F804303360BDE8F8830137EBE7002800
:1042D400EBD00178436839B12146104698472368EA
:1042E400002BE2D03460EEE7120199189B58002BA2
:1042F400DBD03160E7E700BF90DB0000D8DB0000D3
:104304000800002030B50368D3F88C5585B0044606
:10431400EDB100230A2201A9284602F03DFA2368E0
:10432400029AC3F88C2500210A2201A804F027FF71
:1043340000230A2201A9284602F024FA284602F0A2
:10434400C9F92368D3F88C0518B9C3F8880505B0F2
:1043540030BD01A900230A2202F01EFA20680023BE
:104364000A2201A9D0F88C05019302F00BFAEEE7BA
:10437400014901F0B4BF00BFDDE900000A4600684E
:10438400014901F0ACBF00BFB0E6000009B1FFF77E
:10439400F5BF7047014A024901F0A1BF7AE6000067
:1043A400C8E900002DE9F047002506460F461446EB
:1043B4000560207840B104F094FC60B1002304F857
:1043C400013B33680B2BF4D93368002247F82320D0
:1043D4002846BDE8F08733685A1C326047F823400A
:1043E400054694F80080B8F1000FEAD0002D40F0A3
:1043F4008280B8F1270F06D0B8F15C0F00F08380FB
:10440400B8F1220F6FD12046FFF7E4FE611C02468B
:10441400204604F0B6FC4546E3E72046FFF7DAFE03
:10442400611C0246204604F0ACFC0025D9E7302884
:1044340025D102234FF00008E05CA0F13001C9B29D
:1044440007295FFA83F917D8013341EAC801052B1C
:104454005FFA81F8F0D199462046FFF7BBFE09F1D7
:10446400FF3AA244821CA2EB09025146204604F002
:1044740088FC04F8018BB4E7B9F1020FECD1782879
:1044840037D102214FF00008635CA3F13002D2B2AD
:10449400092AC8B214D842EA081303295FFA83F838
:1044A4000CD14FF0040A2046FFF794FE0AF1FF39BD
:1044B400A144821CA2EB0A024946D7E70321E3E7A1
:1044C400A3F16102052A03D8573B43EA0813E4E742
:1044D400A3F14102052A01D8373BF6E7022808D0A8
:1044E4004FF0030ADFE7404604F0FBFB00287FF4AB
:1044F40068AF013475E7A8458FD0B8F15C0FF8D1E7
:104504006078854293D12046FFF764FE04F10108E8
:1045140002464146204604F034FC444661E72DE956
:10452400F34106460F461446002514B902B0BDE80F
:10453400F081706803682246D3F80C80791901ABC6
:10454400C047019B1D44E41A002BEED1B3681A78CE
:10455400032AEAD0D3F894259206FBD5B3F8942520
:104564006FF34512A3F89425DFE72DE9F04F0546D4
:1045740085B090460F46002971D00024385D04F0C0
:10458400B0FB40BB1FFA88FB05F1100A3846FFF761
:1045940021FEAB68DB8B001BA3EB0803984207EBFF
:1045A40004091AD94A46002612F8010B0293019213
:1045B400039204F096FBDDE9012320B112F8013CDB
:1045C4000A2B35D03346A968C88B08EB060188420C
:1045D4002DD90136E8E70134D0E74B460026B04236
:1045E40019D013F8012B0A2A04EB060A1DD12869F5
:1045F40001F06AFE32462E4649462846FFF78FFFF1
:1046040056F8100FFFF7B4FE1FFA88F130460AF18E
:104614000104FFF7BBFE2869391901F060FE28691F
:1046240005B0BDE8F04FFFF7A3BE0136D7E71E463D
:10463400286901F049FE324649462846FFF76FFFD4
:104644003444385D04F04DFB38B92869FFF790FE17
:1046540059465046FFF79AFE98E70134F1E705B052
:10466400BDE8F08F0A4619B10249006801F037BE6F
:10467400704700BFAAE600000A4619B10249006863
:1046840001F02DBE704700BFB6E6000070B50546C8
:10469400FFF7C8FD037B0288818801339A420446F0
:1046A40001D1012915D0012905F1100604D90139D8
:1046B40089B23046FFF7E0FF2388217B8B4209D97A
:1046C400013B591A89B23046FFF7CCFFAB68002290
:1046D4001A8570BDC91A013189B23046FFF756FEFA
:1046E400F4E7F8B50546FFF79DFD04468788C688BC
:1046F4002846FFF785FD78B12869FFF739FEB742F0
:1047040005F110050ED161882388C91A284689B29B
:10471400BDE8F840FFF7A6BF2846FFF7A3FD002831
:10472400EAD1ECE7A388E188C91A89B22846FFF7E1
:10473400A3FF238861888B42E7D9591A284689B296
:10474400BDE8F840FFF722BE2DE9F3410646806834
:10475400434F00244FF4C072214600F5D6708DF803
:10476400034004F00CFD3F49306901F0B8FD3069A5
:1047740001F0AAFD4FF47A7547F0010770680368E9
:104784000122D3F810800DF1030101ABC047019B56
:104794005BB94FF6C010B847019B002BEED1013D29
:1047A400ADB2002DEAD10D2033E09DF80330B1689D
:1047B4001B2B48D091F8AC211B2AEDD1522B42D1AE
:1047C4000C44002384F8AC3191F8AD215B2A1DD14F
:1047D40001F5D770022510F8012B01353B2AADB243
:1047E4001AD1B5F5C07F20D005F5D6740C4400224B
:1047F40014F8010BD8B9FA2A28BFFA22FA2B28BFD9
:10480400FA238A820B8381F8AC0102E081F8AC318F
:104814000B2002B0BDE8F08103EB830302EB4303FA
:10482400303BB5F5C07F9BB2D5D10C20F1E702EB4C
:104834008202013500EB4200ADB23038B5F5C07FDD
:1048440082B2D5D3F1E70A190134A4B2092C82F853
:10485400AC31A1D9002381F8AC310420D9E700BFE1
:10486400C0E600009BE6000038B50546FFF7DAFC19
:10487400028843889A4204468388C28801D19342BD
:1048840014D09A4205D9D21A92B20B49286901F080
:1048940026FD238861888B4205F1100007D9591A37
:1048A40089B2FFF7DFFEAB68DA8C1A8538BDC91A06
:1048B40089B2FFF76BFDF6E7A4E60000F8B51E46E3
:1048C400C3682A4A5B6805469860406803681C68A8
:1048D4002B46A047044600283FD1686901F0F8FE42
:1048E4000446002839D1A8684FF4B3622146C0F8C1
:1048F4008845C0F88C4504F042FCAB681C48B3F80A
:10490400942542F02002A3F89425B3F8942542F0AC
:104914000802A3F8942501221A70164ADA61164A8D
:10492400164B9B1A4FEAD30C21460432614516D12B
:10493400072B04D9124B0E48042204F03FFA66B147
:104944009DF81810E868FDF7C5F80028A1BFEB68CA
:10495400DB6801225A71B8BF04242046F8BD52F81E
:1049640031703F6840F8047B0131DFE7A14100006A
:10497400080000201800500090DB0000D8DB000085
:10498400D1410000FFF7CBBD0CB407B504AB01AABD
:1049940053F8041B0069019301F01EFD03B05DF898
:1049A40004EB02B070470000F8B504468068C58C7B
:1049B400AB18B3F5C07F0F4616463ADA002A38D052
:1049C400038DED1A03F12C0113442C33ADB20144D1
:1049D4006A1C184404F0D5F9A068038D2C333246C0
:1049E4003946184404F0CDF9A0682C30FFF7F2FBE7
:1049F400A268138DD0842C33134420460D4A082119
:104A0400FFF7C2FFA3681A8D32441A852046FFF7C8
:104A1400F7FB40B12069FFF7ABFC55B12046BDE878
:104A2400F840FFF75EBE2046FFF71CFC0028F1D1DA
:104A3400F3E7F8BDC8E900002DE9F04104468068B9
:104A4400D0F89435C28CC3F30008038D5FFA88F75D
:104A5400D51A0E46ADB2002F3FD1B2F5BF7F41D873
:104A64003DB103F12C012D3301442A46184404F0CE
:104A740088F9A3681A8D1A4482F82C60002F72D129
:104A8400DA8C013292B2DA84134483F82C80002D3C
:104A940072D02046FFF7C6FB8288C3889A4204F18D
:104AA400100621D1A268138D2C331344082120460B
:104AB400344AFFF769FFE91B89B23046FFF7D2FD9C
:104AC400A268138D013313852046FFF799FB18B3B1
:104AD4002069BDE8F041FFF74BBCB2F5BF7FC8D9F0
:104AE400002DC6D1BDE8F0812069274A254901F08F
:104AF400F6FBA268138D2C3313442046214A082167
:104B0400FFF742FF2069214A1E4901F0E8FB012119
:104B14003046FFF733FCD3E72046FFF7A3FB00281A
:104B2400E0D02046FFF77EFBC2888388013AD21A80
:104B340092B2054604F110061AB11549206901F034
:104B4400CEFB2069FFF714FCE988AB88C91A30460C
:104B540089B2FFF791FD29880139304689B2BDE851
:104B6400F041FFF713BC002D93D1DA8C013292B2DD
:104B7400DA84134483F82C5032460649206901F044
:104B8400AEFB9DE7C8E900007EE6000081E6000078
:104B9400A4E6000084E30000F0B5826885B0002537
:104BA4000446CDE90155ADF80C50D2F890650F4696
:104BB400002942D1002E3BD0FFF768FDA0683B4698
:104BC400D0F890050A2201A901F0E6FDA068029B35
:104BD400C0F89035C58C002B4ED100F5D670FFF788
:104BE400F9FAA36830B303F5D67103F12C0004F08D
:104BF400F9FAA0682C30FFF7EDFAADF80C00BDF817
:104C04000C30A268AB421385D38402D22069FFF72B
:104C1400C1FBA3682D4A20462C330821FFF7B4FEBC
:104C24002046FFF7EDFA002849D02069FFF7A0FBE2
:104C340005B0F0BD83F82C00DBE7D2F88C35B34225
:104C4400F6D0D2F88835002BF2D0FFF71FFDA36809
:104C5400D3F8900538BB03F12C00FFF7BBFA85B2FB
:104C6400A068D0F88835C0F89035CDB100F12C019A
:104C740000F5D67004F0B6FAA06801A900230A2250
:104C8400D0F8900501F088FDA068BDF80C2000F173
:104C94002C010A230132D0F8900501F07DFDAEE726
:104CA40080F8AC51E8E72B460A2201A901F074FD13
:104CB400A368019ABDF80C50C3F89025DCE72046A0
:104CC400FFF7D0FA0028B0D1B2E700BFC8E900006E
:104CD40038B504468068038DC58CED1AADB2002D3D
:104CE40040D003F12D012C3301442A46184404F02A
:104CF40048F8A268D38C013BD3842046FFF792FA8C
:104D04008288C3889A4215D1A268138D2C33134428
:104D14002046154A0821FFF737FE54F8100F1249B0
:104D2400124A01F0DCFA691E204689B2BDE8384017
:104D3400FFF798BC0E4A0C49206901F0D0FA2069AB
:104D4400FFF728FBA268138D2C3313442046064A30
:104D54000821FFF719FE2069064A0349BDE83840D7
:104D640001F0BDBA38BD00BFC8E9000084E6000008
:104D74007EE6000081E60000F0B5C3685B6891B090
:104D840004460D46002203A9186801F03CFE0028E1
:104D940040F08A8085B1039801F0E5FCA268D2F85E
:104DA40084350133C2F8843503F00703012B03D0A3
:104DB4000125284611B0F0BD2046FFF733FA81885B
:104DC4000129064605D9013989B204F11000FFF71B
:104DD40053FC3188012905D9013989B204F1100045
:104DE400FFF740FC2069FFF7D5FA2DB12F4A0221C5
:104DF4002046FFF7C9FDDCE70023082204A9039835
:104E040001F0CAFC069B0793059B089301238DF8C8
:104E140025309DF8103003F00302012A25D1BDF896
:104E24001050049E0398C3F3C203C5F383158DF891
:104E34002430AA0008230AA901F0AEFCC6F3952683
:104E4400236900932A4607AB0AA93046FCF7DCFE27
:104E5400039801F088FCE3685B68002203A91868E2
:104E640001F0D1FD0028C7D0A2E7022AF0D1BDF895
:104E74001250C3F3C203AD098DF824300827082D5E
:104E84002E4628BF08263B4632460AA9039801F05D
:104E940083FCAD1B236907AA31460AA83744FCF7F3
:104EA40017FF002DEBD1D3E7002582E74CE6000085
:104EB40013B5436801A9002218689C6801F0A3FD9A
:104EC400014610B92046FFF757FF02B010BDF7B5F1
:104ED40047680191BC68A3681E78042E0ED001A90E
:104EE400386801F0AFFC054650B9019801F037FC71
:104EF400032E03D129462046FFF73EFF03B0F0BD41
:104F0400F11E18BF01212046FFF736FFE7E7000036
:104F14002DE9F04F04468068A5B0102100F29450AA
:104F2400FFF75EF8A3681B78022B40F094800023FF
:104F34000B936068036801221D690DF12B010BAB13
:104F4400A8470B9B002B6DD09DF92B30002BF0DB79
:104F540001F02CFCA0684378022B00F23786DFE8CE
:104F640013F0030075057C059DF82B500D2D32D0F0
:104F74000A2D30D0B0F894356FF38D13A0F8943522
:104F8400092D00F01F8300F20283002DD1D0082DDB
:104F940000F0F584284603F0A9FE0028C9D0A368D0
:104FA4009DF82B10D3F89455C5F3C00515F0FF0FE9
:104FB40040F03C84D88CB0F5BF7FBAD81E8D721CEB
:104FC40092B21A851E441A44013086F82C1082F8D5
:104FD4002C50D884ADE7D0F8943513F47F5F05D016
:104FE400D0F89435C3F387139D42C9D1B0F89435F2
:104FF40065F38D13A0F89435C38C002B38D1C0F819
:1050040090352069FFF7B4F9A36802221A700022D0
:1050140083F82C201A85DA8403212368BC4A2046AD
:10502400FFF7B2FC00212046FFF7A6FE98B12368E3
:10503400B74A03212046FFF7A7FCA368D3F89425B9
:10504400120708D520462C33B14A0821FFF79CFCEF
:105054002046FFF746FB206901F036F9A0686FF09F
:10506400100100F29450FEF7D1FF25B0BDE8F08F97
:1050740090F82C30002B40F08480A0682C30FFF78F
:10508400A9F8A368002785B20646C3F890751DB336
:10509400D3F88805002800F0B5803B460A2217A9FA
:1050A40001F07AFBBDF864309D4240F0AB80A0680B
:1050B4000A2300F5D6716A1CD0F8880501F06CFB50
:1050C400A06800F5D6712C3004F0AEF8A36800286F
:1050D40040F0968083F8AC01A0684FF4C0720021C0
:1050E40000F5D67004F04BF8A068C28C00F12C01D6
:1050F40000F5D67004F01AF8A368039303F5D67983
:105104004846FFF767F886B2B9F1000F40F0F68021
:10511400A06800F5D670FFF75DF8A36801305885E4
:105124002046FFF7A1FB2046FFF76AF810B9206973
:10513400FFF71EF9A26817A92C320CA8FFF732F961
:105144000C9A0346002A3FF45CAF002840F0D98053
:10515400704F714EF61BF6080546AE42179B40F0A1
:10516400E3806E4A009202216D4A2046FFF70CFC50
:105174004AE70135B5F5803F04D1002283F82C209D
:105184007BE70025A3682B44AEB293F82C0003F010
:10519400A8FDA3680028ECD16EB1DA8C03F12C00D1
:1051A4000132521B411903F0ECFDA268D38C9B1B06
:1051B4009BB2D3841385A568EB8C2B331D441FFA53
:1051C40085F8A946AFB2A8EB070699F80000B6B275
:1051D400013D03F086FD0028F3D1A568EB8C03F1B3
:1051E4002B01294489453FF448AF9E1BA7EB0802D5
:1051F4002E4413449BB286F82C00EB842B853CE7A9
:1052040083F8AC710827B6B20B3604EB07083146B5
:10521400606901F075FA0546002835D0A368D3F813
:105224008805B8B9C3F88855C3F88C55CDE917007B
:10523400DB8CADF8643017A9284600230A2201F05C
:10524400A1FAA168CA8C0A2301322C31284601F044
:1052540099FA41E700230A2217A901F09DFAA068F0
:10526400189500230A2217A9D0F8880501F08AFAB4
:1052740000231893A368D3F888251792DA8CADF825
:105284006420C3F88855D6E74046FFF73BF8013F52
:10529400BDD121E7BAF1000F0BD0A6EB0A060490AA
:1052A4000BF10100721C484403F06BFD049BB6B281
:1052B4009A46731E9D42BFF62BAF19F8050003F002
:1052C40010FDAB460135ADB20028F2D0039B05F5C5
:1052D400D67898442F46B742EBD2414604910878D9
:1052E40003F0FFFC08F1010804990028D2D00AF168
:1052F400010201371FFA82FABFB2ECE70025AA4681
:10530400D7E7084A02212046FFF73EFB7CE600BFB0
:10531400C8E9000090DB0000D8DB0000DCE80000F6
:10532400E3E70000C8E800007A681846116803F053
:105334007BFFB846083718B10135AE42BFF40DAF54
:10534400A0680021102204300D9103F018FFD8F852
:105354000450EB682BB195E80F00A668043686E884
:105364000F00AB6804934FF00008CDF814800125BA
:10537400C3460C9BAB4210D924AB03EB85068C4986
:1053840056F8340C03F050FF00282ED1A268B2F86E
:10539400943543F00203A2F89435B8F1000F0ED00F
:1053A400A068428D00F5D6712C3003F0BFFEA268D0
:1053B400538DD38417A92C320CA8FEF7F3FFA368EE
:1053C4001B69002B00F0E180059A059817A901EBF1
:1053D40082020C99091A20469847A368B3F89425C9
:1053E4006FF34102A3F894250EE6724956F8340C83
:1053F40003F01AFF0028C9D056F8340CFEF7EEFE6D
:10540400002800F0888056F8343C039300260E965A
:10541400B14609F10103079313AB00934A460EAB5F
:1054240029460498FEF730FF0E9BDBB10022196871
:105434000398FEF7C5FD002867D10E9B1B680693F1
:105444001846FEF7C7FEA26883B21F460893538D21
:1054540001333B44B3F5C07F37D9574A0421204672
:10546400FFF792FA002E98D0A068039900F5D67041
:1054740003F03CFE07460398FEF7ACFE1FFA80F9E2
:10548400F7B1A36803F5D6739F4209D917F8013C15
:10549400202B02BF09F101091FFA89F907F1FF372F
:1054A4003846FEF797FEA268538DA3EB0903538594
:1054B400421CA2EB090207EB0901384603F061FC28
:1054C400B04401355F46BB4653E7039902F5D670F5
:1054D40003F00CFE82460028C4D0FEF77BFE82B2A5
:1054E400781C01325146504403F04BFC3A4606996D
:1054F400504603F01BFE20230AF80730A2680899DF
:10550400538D0133194451850136B9F1FF3FA9D0B8
:10551400DDF81C907DE70FAB0BF1010700935A46B1
:105524000DAB29460498FEF7AFFE002F3FF435AFCC
:105534000D9B002B3FF431AF196856F8340C03F07F
:1055440073FE0028BFD10D9FFB68CBB1B8F1000FEB
:105554000FD02046FFF788F92046FEF751FE10B918
:105564002069FEF705FF154A02212046FFF70CFAD1
:1055740033E797E80F00A6680595043686E80F0020
:10558400BB680493013500279DE70D4AECE71B2D0A
:105594000BD07F2D7FF4FEACD0F8943518077FF53F
:1055A400C8AC2046FFF794FBC3E401234370C0E476
:1055B400F0E80000F3E80000FAE8000048E9000021
:1055C40077E90000D0F894351B077FF5B2ACC68CA0
:1055D400C6F5BF760136B6B2002E3FF4AAAC00F190
:1055E4002C01028D00F5D67003F0A0FDA3681A8D7E
:1055F4001344002583F8AC5193F82B0003F071FB9E
:10560400A2680690431B18BF0123C2F8905517A93E
:1056140002F5D6720CA80793FEF7C4FE1798FEF79E
:10562400D9FDCDE90D551FFA80F804952F46039551
:10563400AB4605950C9B2BB1079A013B13449F4243
:10564400C0F08780069B002B37D124AB03EB870384
:1056540053F8340CFEF7BEFD1FFA80F824AB03EBBD
:1056640087034FF0000A09930AF1010308930FAB73
:10567400009352460DAB39462846FEF705FE0D9BB6
:10568400002B58D01968099B424653F8340C03F098
:10569400FCFC8146B0B9039B013303930D9B18684E
:1056A4000E9B93B9FEF796FD83B2A3EB08008642E6
:1056B400049300DD86B2D34630E04FF00008CDE716
:1056C400CDF814A0DDF820A0CEE7FEF783FD049BFF
:1056D40080B2834238BF03460493FEB113AB0093F8
:1056E40028460EAB059A3946FEF7CEFD0D9B186889
:1056F4000E9BD3F800C008EB09031FFA89F1C25CC2
:105704001AB98E4228BF0E4608E01CF803309342B3
:10571400F7D109F10109B9F5803FECD10D9B0E9346
:10572400089B002BCCD1B64A04212046FFF72CF964
:105734004FF0FF330593002D3AD00D9B002B37D04B
:105744000C9B079A0137BFB213449F42FFF472AF18
:105754002EE024AB4FF0000903EB870A0FAB009354
:105764004A460DAB39462846FEF78EFDB9F1FF3F98
:1057740006D1A34A04212046FFF706F9FFF7D9BB57
:105784000D9B002B3FF4D5AB5AF8340CFEF726FDE5
:105794000028D0D10D9B5AF8340C196803F044FD4D
:1057A40009F101090028D9D10D9B9D68002DC7D1AD
:1057B400039B002B3FF4BDAB012B5BD12B783BB19A
:1057C4000FAB0093059A0EAB39462846FEF75CFDF5
:1057D4000E9B1868FEF7FEFC404506D00E9B196828
:1057E400324641442046FFF7DFF8A3681A8D13447C
:1057F40093F82C0003F075FAA368E0B9D3F8942564
:10580400D70712D5B3F8942560F30002A3F89425C2
:1058140020212046FFF710F9A268B2F8943543F02E
:105824000103A2F89435FFF784BB20212046FFF73B
:1058340003F9FFF77EBB1A8DDB8C9A42BFF479AB78
:105844002046FEF7EFFCA2688588138D013313858B
:105854002046FEF7E7FC8388AB4206D1012104F120
:105864001000FEF78BFDFFF764BB2069FEF780FD97
:10587400FFF75FBBA368DFF89CA100229A8424ABE6
:1058840003EB870307930BF1010305930FAB00931D
:105894005A460DAB39462846FEF7F6FC0D9B1968AF
:1058A400079B424653F8340C03F0EFFB70B9039B9B
:1058B400013B03930D9BD3F800B0BBF1000F08D15B
:1058C400A268A2F824B0039B002B3FD0DDF814B0EB
:1058D400D9E75046FEF77EFC049BA168184482B2C7
:1058E4005046B1F81E900692FEF774FC0890584694
:1058F400FEF770FC069A0899101A83B2A068069302
:10590400B0F824C0A9EB0109B9FBF2F292B2BCFBD6
:10591400F2F102FB11C20CF1010E92B2A0F824E0E4
:105924006AB9CDF800B05346364A07212046FFF73E
:105934002BF8069904F11000FEF728FDC3E75B4637
:10594400314A07212046FFF71FF8F2E723682F4A60
:1059540020460321FFF718F8A3682B4A2C330821AB
:105964002046FFF711F82046FEF7BBFE0E9B196890
:10597400324641442046FFF717F8FFF7DABAD0F869
:1059840094351E077FF5D5AAC68C002E3FF4D1AA04
:10599400038D002B3FF4CDAAF61A03F12C01B6B205
:1059A4002B33721C0144184403F0EBF9A3681A8DDD
:1059B400013A1A85DA8C013ADA84002E44D02A4658
:1059C4001349206900F08BFC2046FEF72BFC8288EB
:1059D400C3889A4220D1A268138D29462C332546C8
:1059E40013442046084AFEF7CFFF55F8100FFEF780
:1059F400D1FC31462846FEF735FEFFF79ABA00BFC0
:105A040095E90000C1E90000C8E90000C7E9000009
:105A140084E300007FE300006D4A6E49206900F0D2
:105A24005EFC2069FEF7B6FCA268138D2C33134488
:105A34002946684A2046FEF7A7FF674A6549206958
:105A440000F04DFCFFF775BA644AF7E79DF82B3078
:105A54005B2B40F0BB800223A8E500234370D0F801
:105A6400943519077FF5DEAA9DF82B30313B1B2BAB
:105A74003FF65FAA01A252F823F000BF9D5B00002D
:105A8400AB5B0000CB5B00008F5B0000374F000076
:105A9400374F0000374F0000374F0000374F0000EA
:105AA400374F0000374F0000374F0000374F0000DA
:105AB400374F0000374F0000374F0000F15A000005
:105AC400FD5A0000015B00004D5B0000374F0000F1
:105AD400935B0000374F0000A15B0000374F0000CC
:105AE400374F0000374F0000AF5B00000121204614
:105AF400FFF752F8FFF71DBA0021F8E72046FEF73A
:105B040091FB038842889A42064604D18188C28860
:105B140091423FF40EAA72899A4204F110050ED103
:105B24002F492069012200F0DAFB71892846FEF72B
:105B340099FDA268138D01331385FFF7FAB901218A
:105B44002846FEF71BFCF4E72046FEF76BFB037BBD
:105B5400028801339A42054603D18388012B3FF41E
:105B6400E8A9012A20690BD11E4900F0B8FB698914
:105B740004F11000FEF70AFCA268138D013BDBE779
:105B84000122194900F0ABFBF6E7032343702046DA
:105B9400FEF76AFEFFF7CDB9032343702046FEF7F4
:105BA40075FDFFF7C6B903234370D0F89435B0F8F8
:105BB400942503F0010383F0010363F30002A0F8CA
:105BC4009425FFF7B6B903234370E5E40023EDE41D
:105BD4007EE60000C8E9000081E6000097E60000C8
:105BE400A4E60000B6E60000AAE6000038B5836823
:105BF4001B78012B054619D14068036800219B6876
:105C04009847044680B90A49286900F068FBAB68E4
:105C1400022283F82C401A701C85DC84054A2B6808
:105C240003212846FEF7B0FE204638BD0824FBE7D2
:105C3400DCE90000C8E900002DE9F04F044689B012
:105C44007D48DFF8189217460E4603F014FB05460C
:105C54007A4803F010FBA368CDF80090784A5B689B
:105C640008212D1A2046FEF78FFEA3685868FEF718
:105C7400B1FA8046484603F0FEFAA36808EB000236
:105C840092B299682046FEF770FC6E4A00212046C5
:105C9400ADB2FEF779FE3FB136B14FF00C09B04614
:105CA40009FB0769C14527D1644803F0E4FA0230CF
:105CB4000544ADB2604B009305F10308624A082124
:105CC40020462B461FFA88F8FEF75EFE42465F49DF
:105CD4002046FEF74AFC36B10C23DFF86C9103FB37
:105CE4000767BE4222D1A368D3F80C80B8F1000F35
:105CF40059D109B0BDE8F08FD8F80400FEF76AFA6C
:105D04008246D8F80000FEF765FA5044A8420AD942
:105D1400D8F80400FEF75EFA0546D8F80000FEF74E
:105D240059FA0544ADB208F10C08BBE7D6E90023E3
:105D34008BB342B30192414A00920821444A20465F
:105D4400FEF722FE7068FEF745FA83463068FEF7D8
:105D540041FA8246394803F08EFA0BEB0A01691ABC
:105D6400091A89B204F11000FEF710FB3A223949EE
:105D7400206900F0B4FAB16889B142462046FEF7C2
:105D8400F4FB0C36ADE700932B464A460821204627
:105D9400FEF7FAFDEFE7002AEDD00092F4E7206960
:105DA400FEF7E6FAEDE700220392174604AE0096EA
:105DB40003AB0121404602F10109FEF765FA039D98
:105DC4005DB12868FEF706FAB84204D9039B186847
:105DD400FEF700FA87B24A46E9E7B9F1010F88D025
:105DE4001D4ADFF864A029462046FEF7CDFD2A4669
:105DF400BD1CADB203AB00960121404602F101097E
:105E0400FEF742FA039B002B3FF473AF1B68009329
:105E140008212B4652462046FEF7B6FD039B5968DF
:105E240031B17A1D92B22046FEF79FFB4A46E1E764
:105E34002069FEF79DFAF9E7C6E60000ECE90000E8
:105E4400C2E9000079E8000083E800008BE8000064
:105E54009EE8000084E30000A7E80000A0E600003C
:105E640038B58368D3F89445C4F340040D4634B17F
:105E740000221146FFF7E0FE2546284638BD0029DA
:105E8400FBD05B68024A0221FEF77EFDF5E700BF06
:105E9400A4E70000012907B506D10022114603B08A
:105EA4005DF804EBFFF7C8BE02290AD153680193D9
:105EB400084B00931368084AFEF766FD03B05DF8CB
:105EC40004FB8CBF0121002103B05DF804EBFFF754
:105ED400C7BF00BFCEDD0000E0E7000011F1FF31D5
:105EE40010B518BF01210446FFF7BAFF38B9044AB8
:105EF4000449206900F0F3F9A368034ADA6110BD8C
:105F040091E60000C8E900001800500001292DE9BD
:105F1400F3410446154635D18668FEF715FC30BBBF
:105F2400A36804F11005FA212846B3F814801F8BE6
:105F3400FEF724FA20691D49FA2200F0D0F9204620
:105F4400FEF702FC98B9A368998AF1831B8BB3838B
:105F5400A1EB0801284689B2FEF784FBB18BC91B6B
:105F640089B2284602B0BDE8F041FEF785BBA368BC
:105F74000F4ADA610F4A0421204602B0BDE8F0411D
:105F8400FEF702BD022994BF00210121FFF768FF3B
:105F940048B96B680193084B00932B68074A0221A8
:105FA4002046FEF7F1FC02B0BDE8F081A4E6000053
:105FB400180050003FE80000CEDD0000E0E70000DC
:105FC4002DE9F04111F1FF3186B018BF01210546DA
:105FD400FFF746FF50BBAB68DFF85880D3F88C65F9
:105FE4000446FEB1082C1DD0304600230A2203A922
:105FF40000F0D2FBBDF81420A96830460A23013210
:1060040001F5D67100F0C8FBAB68049E03F5D673A6
:106014000093671C2346424600212846FEF7B4FC41
:106024003C46DEE7AB68002283F8AC2106B0BDE84D
:10603400F08100BF35E8000011F1FF3110B518BF41
:1060440001210446FFF70CFF30B9A368B3F8942587
:1060540060F3C302A3F8942510BD11F1FF3110B50C
:1060640018BF01210446FFF7FBFE30B9A268B2F85D
:10607400943543F00803A2F8943510BD022973B592
:106084000D4694BF0021012104461646FFF7E8FEA1
:10609400014658B9022D0BD1736801930C4B009340
:1060A4000C4A336829462046FEF76EFC02B070BDE8
:1060B400A368094AD3F8943513F0080F074B18BFA7
:1060C4001346074A204602B0BDE87040FEF75CBCA8
:1060D400CEDD0000E0E7000066E1000020E80000FB
:1060E40024E8000011F1FF3110B518BF0121044666
:1060F400FFF7B6FE48B9A368C3F88405E3685B6894
:10610400BDE81040186800F02EBD10BD7FB511F138
:10611400FF3118BF01210446FFF7A2FE0546B8B9B6
:10612400E3685B681E68304600F01AFDB268A16837
:10613400C0B2CDE9010264234343B3FBF2F3DBB203
:106144000093D1F88435034A29462046FEF71CFC07
:1061540004B070BDE9E70000012906D0022908D186
:106164008368D3F894359B0703D500221146FFF7C3
:1061740063BD024A0221FEF707BC00BF77E90000B5
:10618400022910B504460AD18368D3F894359B07D5
:1061940005D500221146BDE81040FFF74DBD20692A
:1061A400054A064900F09BF82069054A0349BDE801
:1061B400104000F094B800BF88E60000C8E9000071
:1061C4008CE600004168C1E90023024B18600020FE
:1061D400704700BF280B002000207047002914BF1F
:1061E4000620002070470000F8B5114C114F124DE5
:1061F4000646204600F000FC20B93B685B68D3E902
:106204000021904740220C490C48FDF7DBF940B9C6
:106214003046FDF7D2F929460246204600F081FCBB
:10622400E7E7922803D0BDE8F840FBF745BEF8BD88
:106234003CDB0000280B0020580A002034EC00004E
:1062440010B503481C4600F04DFB2060002010BD33
:106254003CDB000038B508481C461546FDF78CF9B0
:1062640030F0080302D12560184638BD112804BF58
:1062740000202060F9E700BF34EC0000012910B5CC
:106284000B46044606D079B1022916D1BDE8104068
:10629400FFF7AABF094A12685268D2E900411846BA
:1062A4002346BDE810401847FDF787F90449024624
:1062B400044800F036FC2046E8E710BD280B002017
:1062C400580A00203CDB0000826810B504462AB15D
:1062D40043690168006998470023A36010BD0EB4A8
:1062E40003B5039921B104AB01AA019300F074F83A
:1062F40002B05DF804EB03B070470A2938B50446D0
:106304000D4602D10D21FFF7F8FFA3682268591C3E
:10631400A160D554D4E901329A4204D32046BDE8A1
:106324003840FFF7D1BF38BD2DE9F84F9946DDE974
:106334000A431746824688460A460126BA420FD2C5
:106344004E4538BF4E4613F0010B01D164B9002409
:106354000125B9F1010F1AD909F1FF397D43F8E795
:10636400B2FBF7F20136E9E79B070ED5B9F1000F4E
:106374000CBF30252025A642EAD2013C29465046CE
:10638400FFF7BBFF002CF6D1E1E72025F3E7B8FBCC
:10639400F5F39F42E2D9DFF83C90B8FBF5F35046A1
:1063A40019F8031005FB1388FFF7A7FFB5FBF7F3F4
:1063B400BD4207D2BBF1000F02D00CB1A64203D3F9
:1063C400BDE8F88F1D46E8E720215046013CFFF761
:1063D40094FFF2E786EC00002DE9F74F05461746D7
:1063E4008846002900F0308118F8011B49B92B7B3D
:1063F400002B00F02981284603B0BDE8F04FFFF7D9
:1064040063BF252940F0C080002698F800302D2B6A
:10641400424608F1010823D0302B24D02B2B25D061
:1064240000242A2B02F1010123D13B681A1D1B68A9
:106434003A601C440A4613782E2B26D101324FF0C1
:106444000009104610F8011BA1F1300CBCF1090F32
:106454001DD80A2303FB0913A3F130090246F0E710
:1064640046F00106D1E746F00206CEE746F0040600
:10647400CBE711F8013CA3F130000928DBD80A224C
:1064840002FB0434303C0A46CBE74FF0000912F813
:10649400011B01F0FB0068289046F8D069290ED052
:1064A4004AD8582964D006D825296DD098F80030E8
:1064B400002B99D19BE7632962D06429F6D13A680D
:1064C400D2F800A0111D8AEAEA723960A2EBEA72DE
:1064D4004FF0010B092A5BDCCB4538BFCB462CB10E
:1064E400BAF1000F01DB720700D5013CB30702D5F6
:1064F400B9F1000F04D0F00702D4002C4ED10024CF
:10650400BAF1000F52DACAF1000A2D212846FFF72A
:10651400F4FE06F00302022A05D1B9F1000F02D1FC
:10652400002C47D10024CDE900464B460A225146AF
:106534002846FFF7F9FEB9E773294CD014D870291F
:10654400B4D13B681A1D3A60302128461C68FFF715
:10655400D4FE78212846FFF7D0FE00220823CDE997
:10656400003221461022E3E775292BD078299DD1EA
:1065740039680A1D3A60CDE900464B46102228E0EE
:106584003B681A1D19783A602846FFF7B6FE8DE776
:106594000A230BF1010BB2FBF3F29BE7A345AFD245
:1065A40020212846013CFFF7A8FEA6E77107B0D5D5
:1065B4002B21ABE7A345B6D230212846013CFFF797
:1065C4009CFEADE73968CDE900460A1D3A604B46AA
:1065D4000A220968ACE73B681A1D3A6016F0010606
:1065E400D3F800A020D1BAF1000F03D0504602F036
:1065F40042FE0646B44200D9C4B90AF1FF3A1EE08D
:1066040028460136FFF779FE1AF806100029F7D15B
:10661400A642BFF44BAF002C3FF448AF20212846DC
:10662400013CFFF76AFEF3E70026EDE72021284648
:10663400013CFFF762FEDDE72846FFF75EFE1AF82D
:10664400011F0029F8D131E703B0BDE8F08F2DE92F
:10665400F047B0F806904479D2F800A09DF8208065
:1066640009FB04F4043C06460AEB0300A0420F466F
:1066740088BFA4EB030A191DC2F800A0B1FBF9F509
:1066840009FB15114DB9A9EB0104544528BF544623
:10669400BAF1000F04D1BDE8F0873668013DF1E797
:1066A40004317B1970182246B8F1000F0ED0014650
:1066B4001846AAEB040A02F039FDD1452544366890
:1066C4004C464FF0000128BF5446E1E71946F0E775
:1066D400FDF718BDF8B546790146721E054600233C
:1066E40093422D6803D30024A64202D8F8BD013397
:1066F400F6E70F682846FDF73CFD01343946F3E719
:106704002DE9F843068BCD1C0746FDF712FD043E28
:1067140035440446B5FBF6F5F0B14FF48073EDB2A1
:106724008380C680013D076081464FF00008A8457C
:1067340012D23846FDF7FDFC064648B163790133B1
:10674400637108F10108C9F8000007608146EEE7AB
:106754002046FFF7BFFF34462046BDE8F8830121F9
:106764000430FDF75EBC10B5012104460430FDF78A
:1067740063FC10F0FF0F04D12046BDE81040FFF782
:10678400A9BF10BD1FB503920022009203AAFFF710
:106794005EFF05B05DF804FB1FB503920122009271
:1067A40003AAFFF754FF05B05DF804FB70470268C5
:1067B40013685268934291BFD01A806801308018E0
:1067C40088BFC01A70472DE9F84303681D685C68E8
:1067D400A54284BF836801331746884694BF641B6F
:1067E4005C1BC2684168BC42064605FB02110CD31F
:1067F4007A43404602F09AFCB3683D449D4288BF08
:10680400002533681D60BDE8F88304FB02F94A469D
:10681400404602F08BFCF26871683C1B624308EB53
:10682400090002F083FC33681C60ECE703688168AC
:106834001A685B688B4234BF01330023D31A584271
:1068440058417047F8B5044600200D46FDF77EFA1E
:106854002046FFF7EBFF10B1237C002B3CD12268CC
:10686400A66853685168B14234BF013100215160B8
:1068740030B11168A068814234BF01310021116038
:10688400E2686068511E072920D8DFE801F004108F
:106894001F141F1F1F182A78C2542046FFF787FFB2
:1068A40023689A68824200D29860002415E02A88FE
:1068B40020F81320F1E72A6840F82320EDE7D5E912
:1068C400006700EBC300C0E90067E6E7294602FB66
:1068D400030002F02BFCE0E704240020FDF738FA63
:1068E4002046F8BD70B505460E46144682B1002018
:1068F400FDF72CFA2846FFF75AFF844228BF0446C6
:10690400224628463146FFF75EFF0020FDF720FAB5
:10691400204670BD10B504460020FDF717FA204646
:10692400FFF745FF04460020FDF712FA204610BD8C
:106934002DE9F04F8368D3F89455C5F340058BB027
:10694400074635B1002211460BB0BDE8F04FFFF702
:1069540073B9012906D9224A02210BB0BDE8F04FD0
:10696400FEF712B81F4C204EDFF88080DFF88090CD
:10697400DFF880A0361B1C23B6FBF3F6AE4202D12F
:106984000BB0BDE8F08FE36808932368D4F808B02F
:106994009A6809922046FFF7BDFF099A94F810E01F
:1069A400642303FB00FCBEF1000F0CBFC646CE46B9
:1069B4005343B3FBFBF3CDE90432BCFBFBF1089B6F
:1069C4000191CDE9020B0093CDE906BE63695246FD
:1069D40008213846FDF7D8FF01351C34CEE700BF47
:1069E40050E500003CDB000090DB0000E4EC00001C
:1069F400EDEC0000F9EC0000036818685B68C31A4A
:106A040058425841704770B5054600200C4616465A
:106A1400FDF79CF92846FFF7EFFF002830D12968DD
:106A24000B682EB90A68A868824238BF561C0E60EB
:106A3400EA686968501E07281CD8DFE800F0040CD7
:106A44001B101B1B1B14CB5C237000240020FDF7C0
:106A54007FF9204670BD31F813302380F5E751F8F3
:106A640023302360F1E701EBC301D1E90023C4E93A
:106A74000023EAE703FB0211204602F057FBE4E798
:106A84000524E3E710B58468FFF744FF201A10BD1E
:106A94002DE9F047044616468946FFF7F3FF2368BD
:106AA400A2685D6802F101088246A8EB05075868F0
:106AB400E2686368B74202FB003017D37243494669
:106AC40002F034FB2268A168536833448B4296BFBA
:106AD40053680026F61856602046FFF768FE2368C0
