:020000040000FA
:040000000256EF3283
:01000B0032C2
:0100130032BA
:01001B0032B2
:0100230032AA
:03002B000253BCC1
:0300330002554D26
:01003B003292
:030043000256461C
:03004B000254F666
:01005300327A
:01005B003272
:01006300326A
:01006B003262
:01007300325A
:20007B0002433D0202EBC082C083E5812404F5817C007D00C374C89C74808DF063F08095FE
:20009B00F0500B7490C39CFA74019DFB80048C028D03E58124FBF886078F82C007C005C087
:2000BB0004C003C0027890798C7A0112468FD002D003D004D005D007E58124FDF8E4F608A7
:2000DB00F6E58124FDF8C3E69A08E664808BF063F08095F0501DE58124FDF8A98119E6F79C
:2000FB000809E6F7E58124FDF8740126F6E40836F680CE8F82C005C004C003C00278A679CB
:20011B008C7A0112468FD002D003D004D005E58124FDF8E4F608F674C8C39AFEE49BFFE537
:20013B008124FDF8C3E69E08E664808FF063F08095F0501DE58124FDF8A98119E6F70809FD
:20015B00E6F7E58124FDF8740126F6E40836F680CE0CBC00010DC3EC9490ED648094815052
:20017B000302008FE58124FAF58122E5812408F5817E0C7F78E58124F9FD7C07EC2DF98E88
:20019B00828F83E0FBA3AE82AF83A7031CEC30E7EB74072DF987077E0074062DF987048CB8
:2001BB0003E44207EB420689047B007A40C007C006C0057402C0E0E4C0E0C004C003C002CA
:2001DB0090091175F000785079597A0012468FE58124FBF581907F14E493FAA3E493FBA3B3
:2001FB00E493FCC004C003C00274CDC0E074ABC0E0C002C003C004900002D002D001D0003A
:20021B0012468F15811581D002D003D004D005D006D007907F14E493FAA3E493FBA3E493F2
:20023B00FCC005C004C003C002C007C006C002C003C004900003D002D001D00012468F15C1
:20025B00811581D002D003D004D005907F14E493FCA3E493FEA3E493FFC007C006C005C045
:20027B00047419C0E0E4C0E0C004C006C007900001D002D001D00012468F15811581D00472
:20029B00D005D006D007907F1AE493FCA3E493FEA3E493FF7B007A40C007C006C0047408F2
:2002BB00C0E0E4C0E0C005C003C002C004C006C00790000BD002D001D00012468FE58124E5
:2002DB00FBF581D004D006D007E58124F8F5812278EF79527A0012468F78C979BE7A01125F
:2002FB00468F78C5798F7A0112468F7836798C7A0112468F75820378A6798C7A0112468FD3
:20031B0090000212008178A879977A0112468F78EE79B37A0112468F7802798C7A011246C5
:20033B008F90441B75F00078EE798B7A0112468F784C79467A0012468F900001120081905B
:20035B007D3575F080784579B07A0112468F907D5275F080784579B07A0112468F90624ADB
:20037B00E0FFBF8D028042BF9502802CBFA5028005BFB5448011907D6875F080784579B0FD
:20039B007A0112468F8031907D6F75F080784579B07A0112468F8020907D7675F0807845C1
:2003BB0079B07A0112468F800F907D7D75F080784579B07A0112468F907D8475F08078451E
:2003DB0079B07A0112468F906277E0FF0F8F82787879B07A0112468F907D8C75F080784559
:2003FB0079B07A0112468F78A479117A0012468F900000786179BE7A0112468FE4C0E0C00A
:20041B00E0C0E090096D75F000787C79917A0112468F15811581158178DA79AB7A0112466B
:20043B008F781C79B17A0112468F120186E4C0E0C0E0C0E090099575F000787C79917A0189
:20045B0012468F158115811581907E37E493FDA3E493FEA3E493FFC007C006C0057401C067
:20047B00E0E4C0E0C005C006C007900081D002D001D00012468F15811581D005D006D00792
:20049B00907E43E493FDA3E493FEA3E493FFC007C006C0057401C0E0E4C0E0C005C006C015
:2004BB0007900081D002D001D00012468F15811581D005D006D00778A779467A0012468FC2
:2004DB00907D9575F08078E979B27A0112468F78AA79117A0012468F90000412008178B030
:2004FB0079117A0012468F900910E0E0605778F1791A7A0012468FE5828583F045F0604045
:20051B00782A791B7A0012468FAE82AF83C007C00678D479527A0012468FAC82AD83D0068E
:20053B00D007EEC39CFEEF9DFF1EBEFF011FC374FF9E747F9F500978C079177A0012468F10
:20055B00900910E4F07815799A7A0112468FAE82AF83EE7089907F08E493FDA3E493FEA372
:20057B00E493FFC007C006C005C005C006C007D002D001D00012468F858208858309D005F7
:20059B00D006D007E508450970030204F9789779A27A0112468F907EFFE493FDA3E493FEC1
:2005BB00A3E493FFC007C006C005781279A67A0112468FAA82AB83ACF0D005D006D007C072
:2005DB0007C006C0057480C0E0E4C0E0C005C006C0078A828B838CF0D002D001D0001246A3
:2005FB008F85820885830915811581D005D006D007E508450970030204F9850882850983B6
:20061B00780479A67A0112468F907F2BE493FDA3E493FEA3E493FFC007C006C005C005C00C
:20063B0006C007D002D001D00012468FD005D006D0070204F9AFF0AE83E58290094FF0EEFA
:20065B00A3F0EFA3F00246A1900952E0FEA3E0FF900952E4F0A3F08E828F830246A1AE82A9
:20067B00AF83900952E0FCA3E0FD900952EE4CF0EF4DA3F090094FE0FDA3E0FEA3E0FF90AA
:20069B00094FE0F5F0A3E045F0600F8D828E838FF07828799B7A0112468F0246A1AD82AE80
:2006BB0083AFF09005D5E0FBA3E0FCEB30E0030207699005CBE0FBA3E0FCE58124FCF8C3CE
:2006DB00E69B08E69C400AE58124FCF8A60308A6049005D57448F0E4A3F09005CBE0FBA366
:0506FB00E0FCE5812494
:20070000FCF8C3E69B08E69C50139005D5E0FBA3E0FC4303029005D5EBF0ECA3F09005CD82
:20072000E4F0A3F0A3F09005D0EDF0EEA3F0EFA3F09005D3E58124FCF8E6F008E6A3F090AD
:2007400005D77403F0E4A3F0A3F0A3F074CDC0E07405C0E0E4C0E0758200784379247A0072
:2007600012468F1581158115810246A19009547401F07582007893792B7A0012468F024646
:20078000A19005D5E0FEA3E0FFEE30E00280499005D57448F0E4A3F09005CDF0A3F0A3F020
:2007A0009005D0F0A3F0A3F09005D3F0A3F09005D77405F0E4A3F0A3F0A3F074CDC0E0740C
:2007C00005C0E0E4C0E0758200784379247A0012468F1581158115810246A1AD82AE83AF86
:2007E000F09005D5E0FBA3E0FCEB30E00302086DE58124F9F8900955E6F008E6A3F008E622
:20080000A3F0900958EDF0EEA3F0EFA3F0E58124FCF8860308860490095BEBF0ECA3F090FD
:2008200005D57408F0E4A3F09005CDF0A3F0A3F09005D0EDF0EEA3F0EFA3F09005D3EBF0FB
:20084000ECA3F09005D77402F0E4A3F0A3F0A3F074CDC0E07405C0E0E4C0E07582007811AC
:2008600079227A0012468F1581158115810246A17412C0E0E4C0E0907E5075F08078B8793B
:20088000067A0012468F158115810246A19005C7E0FEA3E09005C9E0FDA3E0FFC0068D828D
:2008A0008F83780579887A0112468FAD82AE83AFF01581ED4E700B786C79077A0012468F36
:2008C00080238D828E838FF0125A99FC7B00C004C0038D828E838FF078B879067A001246B3
:2008E0008F158115810246A1900982E0FDA3E0FEA3E0FF74022DFAE43EFB8F048A828B83F2
:200900008CF0125A99FAA3125A99FBC002C0038D828E838FF078B879067A0012468F1581EF
:2009200015810246A17401C0E0E4C0E09005DD75F00078B879067A0012468F15811581028A
:2009400046A1900001787979067A0012468F9005C7E0FEA3E09005DDE0FFB50602801E9055
:2009600005DDEEF08E8278D5792D7A0012468F788179077A0012468F900001800C788179EA
:20098000077A0012468F9000000246A17402C0E0E4C0E09005DB75F00078B879067A0012CC
:2009A000468F158115810246A19005C9E0FEA3E0FFEE547F6002801C7402C0E0E4C0E090A6
:2009C0007E1C75F08078B879067A0012468F1581158180328E8278D8792D7A0012468FE55E
:2009E000828583F09005DEF0E5F0A3F07402C0E0E4C0E09005DE75F00078B879067A001205
:200A0000468F158115810246A17402C0E0E4C0E0907E1C75F08078B879067A0012468F151E
:200A20008115810246A19005DDE0FF700B786C79077A0012468F801A7401C0E0E4C0E09062
:200A40007E1B75F08078B879067A0012468F158115810246A19005C5E0FFBF0003020B37B4
:200A6000BF0103020B6DBF0203020B85BF8002800FBF8103020B01BF8203020B1C020BDB6D
:200A80009005C6E0FF605CBF0602800ABF08028046BF0A6780599005C7E0FEA3E0FFBF01FB
:200AA00002800ABF02028011BF03268018787079087A0012468F020BE078E879087A0012B2
:200AC000468F020BE0788D79087A0012468F020BE0900000020BE3782579097A0012468F80
:200AE000020BE0788C79097A0012468F020BE07826790A7A0012468F020BE0900000020B29
:200B0000E39005C6E0FF6002800C7809790A7A0012468F020BE0900000020BE39005C6E0BD
:200B2000FF6002800C78A979097A0012468F020BE0900000020BE39005C6E0FFBF050280D7
:200B400005BF0923801590094EE0FF74014FF0788179077A0012468F020BE0784279097A19
:200B60000012468F020BE0900000020BE39005C6E0FFBF0B0B788179077A0012468F806058
:200B8000900000805E9005C6E0FFBF01028003BF03449005C7E0FDA3E0FE4D702EBF0301FA
:200BA00004FF3395E0FE9005C9E0FCA3E0C007C0068C8278C6792B7A0012468F15811581C5
:200BC000788179077A0012468F8015786C79077A0012468F800A900000800890000080032C
:200BE0009000010246A19005CDE4F0A3F0A3F09005D074C5F07405A3F0E4A3F09005D37432
:200C000008F0E4A3F09005D5742CF0E4A3F09005D704F0E4A3F0A3F0A3F074CDC0E074059D
:200C2000C0E0E4C0E0758200781179227A0012468F1581158115810246A1C082C083C0F034
:200C40000581058105817C01E58124FBF886820886830886F0125A99FAA3125A99FBBA0015
:200C600005BB0002800BBAC305BB0102801D0210077C00E58124FBF886820886830886F0A1
:200C800074C3125763A37401125763EC700675820102101FE58124F7F8B68303021007E52F
:200CA0008124F7F8B682CA78AD791D7A0012468FAB82AC83EB4C604EEB30E322C004C0039A
:200CC00078E6790B7A0012468F9005DDE4F0900008787979067A0012468FD003D004EB3060
:200CE000E114900002C004C003787979067A0012468FD003D004EB30E20C90000478797967
:200D0000067A0012468F75820078E6791D7A0012468FAA82AF838A038F04EB4C7003020CEA
:200D200071EB20E003020C719005D5E0FBA3E0FCEB30E003020C71EB30E70C78E6790B7A2A
:200D40000012468F020C71EB20E503020EB890094BE0FAA3E0FBA3E0FCA8811818760808D8
:200D60007600A8811818E624FFFD08E634FFFFA8811818A60508A607ED4F70E6EA4B70038B
:200D8000020E9174032AFDE43BFE8C078D828E838FF0A8811818125A99F6A3125A9908F6CB
:200DA000A3125A9908F6C002C003C004E58124FBF886820886830886F0125A99FC9005C5D5
:200DC000E06204E58124FBF8740126FAE40836FB0886078A828B838FF0125A995CD004D06B
:200DE00003D0026003020E7AC002C003C004E58124FBF8740226FDE40836FE0886078D820E
:200E00008E838FF0125A99FD9005C6E06205E58124FBF8740326FCE40836FE0886078C82C5
:200E20008E838FF0125A995DD004D003D002704AA8811818740426FDE40836FE0886078D57
:200E4000828E838FF0125A99FDA3125A99FEA3125A99FFC007C004C003C002C005C006C0D6
:200E600007D002D001D00012468FAD82AE83D002D003D004D007ED4E70178A828B838CF009
:200E8000125A99FAA3125A99FBA3125A99FC020D7CEA4B7009786C79077A0012468F900975
:200EA00054E07003020C71900954E4F078E6790B7A0012468F020C719005D7E0FCA3E0FDC1
:200EC000A3E0FEA3E0FFBC0355BD0052BE004FBF004C9005D57408F0E4A3F09005CDF0A392
:200EE000F0A3F09005D0F0A3F0A3F09005D3F0A3F09005D77404F0E4A3F0A3F0A3F074CD57
:200F0000C0E07405C0E0E4C0E0758200781179227A0012468F158115811581020C71900542
:200F2000D7E0FCA3E0FDA3E0FEA3E0FFBC0415BD0012BE000FBF000C78E6790B7A0012468B
:200F40008F020C71BC054DBD004ABE0047BF004490094EE0FB30E030758200789479117A5D
:200F60000012468FE5828583F045F070EB9005C7E0FAA3E08A827808792E7A0012468F90BE
:200F8000094EE0FB74FE5BF078E6790B7A0012468F020C71BC020BBD0008BE0005BF00028E
:200FA0008003020C71900955E0F5F0A3E045F0604A9005D3E0FEA3E0FF90095BE0FCA3E0FF
:200FC000FDECC39EFEED9FFF900958E0FBA3E0FCA3E0FDC006C007900955E0C0E0A3E0C035
:200FE000E0A3E0C0E08B828C838DF0D002D001D00012468F15811581020C71788179077A5D
:201000000012468F020C71E58124FBF886820886830886F0E4125763A3125763758203E558
:201020008124FAF5810246A178AB79217A0012468FE4C0E0C0E0C0E090096375F000787C7B
:2010400079917A0112468F15811581158190096375F000789A791D7A0012468F7463C0E081
:201060007409C0E0E4C0E07582007862791D7A0012468F15811581158190095D75F0007872
:201080008B79107A0012468F0246A1C082C083C0F07A4B7B097C008A828B838CF0125A995D
:2010A000FDA3125A99FEA3125A99FFED4E60088D028E038F0480E08A828B838CF0A8811859
:2010C00018E6125763A308E6125763A308E6125763A881181886820886830886F0E412574F
:2010E00063A3125763A31257631581158115810246A1AD82AE83AFF090094BE0FAA3E0FBC9
:20110000A3E0FC8D828E838FF0EA125763A3EB125763A3EC12576390094BEDF0EEA3F0EF15
:20112000A3F00246A19005DDE0FF7E008F828E830246A1782279297A0012468F0246A1785B
:201140005479297A0012468F0246A1AF82C007786C792A7A0012468FD0078F8278ED792980
:201160007A0012468F0246A1786C792A7A0012468F0246A1AF82E58124FCF8E6C0E008E631
:20118000C0E08F8278C6792B7A0012468F158115810246A17811792E7A0012468FAE82AFD6
:2011A000830246A175C9000246A143C9080246A1740F55C944A0F5C9740F55C94450F5C969
:2011C0000246A175C903C2AF43C9080080FD0246A1E5812407F5819005E1E0F5F0A3E045F0
:2011E000F0700A9005E4E4F0A3F002136778D479527A0012468FAE82AF83E58124FCF8A62B
:201200000608A6079005E1E0FBA3E0FCA3E0FDA8811818A60308A60408A605A8811818867D
:20122000820886830886F0125A99FAA3125A99FFA8811818740226FCE40836FD0886068CC7
:20124000828D838EF0125A99FCA3125A99FDEC2AFAED3FFFE58124FCF8EAC396FAEF089655
:20126000FFE58124FAF8A60208A607A8811818740426FBE40836FC0886058B828C838DF05A
:20128000A8811818125A99F6A3125A9908F6A3125A9908F6A8811818E4C0E0C0E0C0E0860B
:2012A000820886830886F01256181581158115817003021351A88118188682088683088602
:2012C000F0125A99FCA3125A99FDA8811818740226FAE40836FB0886078A828B838FF0122C
:2012E0005A99FEA3125A99FFEE2CFAEF3DFBE58124FCF8EAC396FAEB0896FBE58124FAF860
:20130000C3EA96EB0896501DEE2CFCEF3DFDE58124FCF8ECC396FCED0896FDE58124FAF892
:20132000A60408A605A8811818740426FDE40836FE0886078D828E838FF0A8811818125A43
:2013400099F6A3125A9908F6A3125A9908F6021294E58124FCF8E58124FAF99005E4E72689
:20136000F009E70836A3F0E58124F9F5810246A1E581240CF581AD82AE83AFF07C01125AE6
:2013800099FAA3125A99FBBA0005BB0002800BBA5905BB0002801E0217A69005E1E4F0A3F1
:2013A000F0A3F07C008D828E838FF07459125763A3E4125763EC70067582010217B7E58113
:2013C00024F1F8B687028003021573E58124EEF8A9811919E6F70809E6F70809E6F790059A
:2013E000E1E0FAA3E0FBA3E0FCEA4B6078C005C006C00774072AFDE43BFE8C078D828E8364
:201400008FF0125A99FDA3125A99FEA3125A99FFE58124FBF8C005C006C007868208868316
:201420000886F01256181581158115816008D007D006D005802FD007D006D00574042AFA35
:20144000E43BFB8A828B838CF0125A99FAA3125A99FBA3125A99FC9005E1EAF0EBA3F0ECDC
:20146000A3F00213DE9005E1E0FAA3E0FBA3E0FC9005E1E0F5F0A3E045F070030213A3E596
:201480008124FBF8A60208A60308A604E58124FBF8740426FAE40836FB0886048A828B83CB
:2014A0008CF0E58124F5F8125A99F6A3125A9908F6A3125A9908F6E58124F5F8E6084670D7
:2014C000030213A3C005C006C007E58124F2F8740726FDE40836FE0886078D828E838FF099
:2014E000125A99FDA3125A99FEA3125A99FFE58124FBF8C005C006C0078682088683088627
:20150000F01256181581158115816008D007D006D0058041E58124F2F8740426FDE40836BD
:20152000FE0886078D828E838FF0125A99FDA3125A99FEA3125A99FF8A828B838CF0ED1295
:201540005763A3EE125763A3EF125763D007D006D00502148C8A828B838CF0E58124FBF8DF
:20156000125A99F6A3125A9908F6A3125A9908F602148CE58124F1F8B6820280030213A39A
:20158000E58124F8F8E4F608F60876009005E1E0FAA3E0FBA3E0FCE58124FBF8A60208A65B
:2015A0000308A604E58124FBF8E4C0E0C0E0C0E086820886830886F01256181581158115DD
:2015C0008170030213A3E58124FBF886820886830886F0C007C006C005783079B27A011299
:2015E000468FE5828583F0D005D006D00745F07003021764C005C006C007E58124F8F886BE
:2016000002088603088604E58124F8F8E58124F2F9740726F7E4083609F70809E6F7E581A8
:2016200024F2F886820886830886F0125A99FDA3125A99FEA3125A99FFC005C002C003C0AC
:20164000047488C0E08D828E838FF07862799A7A0112468FAE82AF83E58124FCF581D005C9
:20166000EE4FD007D006D005600302174FE58124F5F886820886830886F0E4125763A3126D
:201680005763A3125763E58124F8F8E608466056C005C006C007E58124F5F8740426FAE478
:2016A0000836FB088604E58124F8F8740426FDE40836FE0886078D828E838FF0125A99FDF4
:2016C000A3125A99FEA3125A99FF8A828B838CF0ED125763A3EE125763A3EF125763D007DC
:2016E000D006D005802FE58124FBF8740426FAE40836FB0886048A828B838CF0125A99FA37
:20170000A3125A99FBA3125A99FC9005E1EAF0EBA3F0ECA3F0E58124FBF8740426FAE40834
:2017200036FB0886048A828B838CF0E4125763A3125763A3125763C007C006C00578D179AE
:20174000117A0012468FD005D006D007021580C007C006C00578C079177A0012468FD005AE
:20176000D006D007E58124FBF8E58124F8F9E6F70809E6F70809E6F7E58124FBF8740426F0
:20178000FAE40836FB0886048A828B838CF0E58124FBF8125A99F6A3125A9908F6A3125ADD
:2017A0009908F60215A48D828E838FF0E4125763A3125763758203E58124F4F5810246A142
:2017C00090096D75F0007828799B7A0112468F0246A1C082C083C0F005810581058178C0A0
:2017E00079177A0012468FE58124FBF8A9811919740726F7E4083609F70809E6F7A8811836
:201800001886820886830886F0125A99FDA3125A99FEA3125A99FFED4E70030218B29005BB
:20182000E1E0FDA3E0FEA3E0FFE4C0E0C0E0C0E08D828E838FF012561815811581158160E2
:2018400071E58124FBF8C005C006C00786820886830886F01256181581158115816002808D
:2018600031900992E0FAA3E0FBA3E0FCA881181886820886830886F0EA125763A3EB125798
:2018800063A3EC12576378D179117A0012468F02192174042DFAE43EFB8F048A828B838C25
:2018A000F0125A99FDA3125A99FEA3125A99FF021829900992E0FDA3E0FEA3E0FFA881185A
:2018C0001886820886830886F0ED125763A3EE125763A3EF125763E58124FBF8740426FDCD
:2018E000E40836FE0886079005E1E0FAA3E0FBA3E0FC8D828E838FF0EA125763A3EB12579A
:2019000063A3EC125763E58124FBF89005E1E6F008E6A3F008E6A3F078D179117A00124699
:201920008FE58124FAF5810246A1AD82AE83AFF0C007C006C005E58124F9F8E6C0E008E6F5
:20194000C0E08D828E838FF0787179B17A0112468F15811581D005D006D0078D828E838F76
:20196000F078D279177A0012468F0246A1AD82AE83AFF0C007C006C00578C079B17A011213
:20198000468FD005D006D00774022DFAE43EFB8F048A828B838CF0E58124FCF8E6125763DD
:2019A000A308E61257638D828E838FF078D279177A0012468F0246A1AD82AE83AFF0C00741
:2019C000C006C00578C079B17A0112468FD005D006D0078D828E838FF078D279177A001231
:2019E000468F0246A1AD82AE83AFF0C007C006C00578FF79B17A0112468FD005D006D00753
:201A00008D828E838FF078D279177A0012468F0246A1C082C083C0F0A881181886820886DF
:201A2000830886F0125A99FBA3125A99FCE58124F9F88602088607EA2BFBEF3CFCA88118F1
:201A40001886820886830886F0EB125763A3EC12576378D179117A0012468F158115811550
:201A6000810246A1AD82AE83AFF074072DFDE43EFE8D828E838FF0125A99FDA3125A99FEF1
:201A8000A3125A99FFE4C0E0C0E0C0E08D828E838FF0125618158115811581700304800102
:201AA000E4FD3395E0FF8D828F830246A1AD82AE83AFF0125A99FBA3125A99FC74022DFD51
:201AC000E43EFE8D828E838FF0125A99FDA3125A99FEED2BFBEE3CFC8B828C830246A1AFB2
:201AE000F0125A99FDA3125A99FE8D828E830246A19005E1E0FDA3E0FEA3E0FFE4C0E0C0AB
:201B0000E0C0E08D828E838FF01256181581158115817003048001E4FDB40100E433FD338F
:201B200095E0FF8D828F830246A178F1791A7A0012468FE5828583F045F0600A9005E4E073
:201B4000FEA3E0FF80047E007F008E828F830246A1C082C083C0F09005E1E0FAA3E0FBA3D3
:201B6000E0FCA8811818C002C003C00486820886830886F01256181581158115816002802C
:201B80003474042AFDE43BFE8C078D828E838FF0125A99FDA3125A99FEA3125A99FF90053F
:201BA000E1EDF0EEA3F0EFA3F078D179117A0012468F021C5AE4C0E0C0E0C0E08A828B83DA
:201BC0008CF0125618158115811581604274042AFDE43BFE8C078D828E838FF0125A99FDB5
:201BE000A3125A99FEA3125A99FFA8811818C005C006C00786820886830886F012561815C1
:201C0000811581158160088D028E038F0480A6EA4B604774042AFAE43BFBA8811818740473
:201C200026FDE40836FE0886078D828E838FF0125A99FDA3125A99FEA3125A99FF8A828B47
:201C4000838CF0ED125763A3EE125763A3EF12576378D179117A0012468FA881181874040C
:201C600026FDE40836FE0886078D828E838FF0E4125763A3125763A3125763A88118187492
:201C80000726FDE40836FE0886078D828E838FF0E4125763A3125763A3125763158115810C
:201CA00015810246A1AE82AF83900980E0FCA3E0FD900980EE4CF0EF4DA3F090097DE0FDC9
:201CC000A3E0FEA3E0FF90097DE0F5F0A3E045F0600F8D828E838FF07828799B7A011246D9
:201CE0008F0246A1C082C083C0F0A8811818740926FAE40836FB0886048A828B838CF012EA
:201D00005A99FEA3125A99FFE58124F9F8E6420608E642078A828B838CF0EE125763A3EF69
:201D2000125763A8811818740626FDE40836FE0886078D828E838FF0125A99FDA3125A99E3
:201D4000FEA3125A99FFED4E600F8D828E838FF07828799B7A0112468F15811581158102BB
:201D600046A1AF82747F5F75F00DA424E7FE740535F0FF7D0074062EFEE43FFF8E828F83D6
:201D80008DF0E58124FBF8E6125763A308E6125763A308E61257630246A1AFF0AE83E582BD
:201DA00090097DF0EEA3F0EFA3F00246A1058105817402559AFFAE9A74FD5EF59A90098002
:201DC000E0FDA3E0FEA88118A60508A606900980E4F0A3F0EF429AA881188682088683154B
:201DE0008115810246A105810581AF82747F5F75F00DA424E7FE740535F0FF7D0074025550
:201E00009AFCAB9A74FD5BF59A74092EFEE43FFF8E828F838DF0A88118125A99F6A3125AD7
:201E20009908F68E828F838DF0E4125763A3125763EC429AA88118868208868315811581FF
:201E40000246A1AF82E58124FBF886050886068E049008F6ECF09008F7EDF09008F8E5816E
:201E600024FDF8E6F09008F9EFF0E58124F9F80886079008FAEFF0E58124F9F886067F00FC
:201E80009008FBEEF09008FC7420F09008FD7412F043D601E5D6FF30E0FA43D701E5D6FFFB
:201EA00020E0FA75D1FE0246A1AE82AF839008F6E58124FCF8E6F09008F7E58124FDF8E6C3
:201EC000F08F059008F8EDF09008F9EEF0E58124FAF80886079008FAEFF0E58124FAF8861E
:201EE000067F009008FBEEF09008FC7420F09008FD7442F043D601E5D6FF30E0FA43D701A0
:201F0000E5D6FF20E0FA75D1FE0246A1C082C083C0F0E5812404F58124F6F88606E4CE2532
:201F2000E0CE33FFEE2420FEEF3462FFA88118A60608A607E58124F4F8C3740896E408969E
:201F40005044E58124FAFDFC2402F9E770388D04EC04F987048D018705E58124F4F8E6C087
:201F6000E008E6C0E0E58124FDF8E6C0E008E6C0E0C0048D827843791E7A0012468FE58174
:201F800024FBF581806AE58124FAF88603088604088605E58124F4F8E58124FDF9E6F708BD
:201FA00009E6F7E58124FDF88602088607E58124FDF816B6FF020816EA4F6027A8811886AE
:201FC00082088683E0FF8B828C838DF0125763A3AB82AC83E58124FAF8A60308A60408A6A6
:201FE0000580C0E58124FAF8A60308A60408A605E58124F9F5810246A1E5812404F581AF7D
:2020000082E4CF25E0CF33FEEF2420FFEE3462FEA88118A60708A606E58124F5F8C374087A
:2020200096E408965042E58124F7FDFC2402F9E770368D04EC04F987048D018705E5812427
:20204000F5F8E6C0E008E6C0E0C004C005E58124FBF8868208868378A9791E7A0012468F47
:20206000E58124FCF581806BE58124F7F88603088604088605E58124F5F8E58124FDF9E675
:20208000F70809E6F7E58124FDF88602088607E58124FDF816B6FF020816EA4F60288B8287
:2020A0008C838DF0125A99FFA3AB82AC83E58124F7F8A60308A60408A605A88118868208B9
:2020C0008683EFF080BFE58124F7F8A60308A60408A605E58124FCF5810246A10581058161
:2020E00005817F00EF75F00DA424E7FD740535F0FE74022DFBE43EFC8B828C83E0FA20E27E
:202100000302218D8D828E83A3A3A3A8811818E0F6A3E008F6A3E008F68B828C83E4F08F53
:2021200082C007784B79117A0012468FD007A8811818E608466056C007E58124FDF87408CC
:2021400026FBE40836FC0886078B828C838FF0125A99FDA3125A99FE5305FE8B828C838F67
:20216000F0ED125763A3EE125763E58124FDF886820886830886F0125A991818F6A3125A09
:202180009908F6A3125A9908F6D00780A10FBF040050030220E475820078EF79287A001254
:2021A000468F1581158115810246A190620F7403F090620FE0FF30E7F8D29043FE017F0025
:2021C000EF75F00DA424E7FD740535F0FE8D828E83A3A3E4F074062DF582E43EF583E4F090
:2021E000A3F0A3F00FBF040040D678DC79207A0012468F906207E4F0906209F09009777546
:20220000F00078D179BC7A0112468F439A020246A1C082E5812407F58124F9F8747F56750A
:20222000F00DA424E7FD740535F0FC7E0074022DFAE43CFB8E078A828B838FF0125A99FAF8
:2022400020E20302243AC005C004C006E58124F0F8860208860308860774032AFCE43BFDF1
:202260008F068C828D838EF0125A99FCA3125A99FDA3125A99EC4DD006D004D0057050E582
:202280008124F9F8E6547F60028044C005C004C00674082AFCE43BFD8F068C828D838EF08B
:2022A000125A99FCA3125A99ECD006D004D00530E31A7401C0E0E4C0E08D828C838EF07830
:2022C000E4791C7A0012468F1581158102243AC002C003C007E58124FDF87402559AF6AFC3
:2022E0009A74FD5FF59AE58124FAF874032DF6E43C08F608A606D007D003D002E58124FDFA
:20230000F886820886830886F0E58124FAF9125A99F7A3125A9909F7A3125A9909F7E581FF
:2023200024FAF8E608466028C002C003C007E58124F7F88602088603088607E58124FAF8DC
:20234000A60208A60308A607D007D003D00280ACE58124FDF886820886830886F0EA12575E
:2023600063A3EB125763A3EF125763E58124F3F8E608466076C005C004C006E58124F0F802
:202380008602088603088607E58124F7F874082AF6E43B08F608A607E58124F7F88682081F
:2023A00086830886F0125A99FDA3125A99FE430501E58124F7F886820886830886F0ED1296
:2023C0005763A3EE1257638A828B838FF0E58124F0F8125A99F6A3125A9908F6A3125A9992
:2023E00008F6D006D004D00502236BE58124F9F890620E747F56F00DBD00010C8D828C8327
:202400008EF0125A99FF547F60028013906211E0FE30E021788E79397A0012468F80169021
:202420006214E0FE30E00E53077F8F82787A793F7A0012468FA881E6429AE58124F8F58152
:202440000246A1E5812407F581AC82747F5C75F00DA424E7FD740535F0FEA8811818A60551
:2024600008A606087600A8811818740226FAE40836FB0886078A828B838FF0125A99FA20D1
:20248000E203022642E58124FDF87402559AF6AB9A74FD5BF59AEC547F6002806EE58124DA
:2024A000F4F8860208860308860774032AFAE43BFB8A828B838FF0125A99FAA3125A99FB92
:2024C000A3125A99FFEA4B703790620EE4F09062117448F07401C0E0E4C0E0E58124FCF8DF
:2024E00086820886830886F078E4791C7A0012468F15811581E58124FDF8E6429A0226421C
:2025000090620EE4F09062117440F0A8811818740326FAE40836FB0886078A828B838FF005
:20252000125A99FCA3125A99FDA3125A99FEEC4D60088C028D038E0780E08A828B838FF002
:20254000E58124F4F8E6125763A308E6125763A308E6125763E58124F4F8E608466069E541
:202560008124F4F88605088606088607E58124FAF874082DF6E43E08F608A607E58124FAA2
:20258000F886820886830886F0125A99FBA3125A99FC430341E58124FAF8868208868308E4
:2025A00086F0EB125763A3EC1257638D828E838FF0E58124F4F8125A99F6A3125A9908F6DD
:2025C000A3125A9908F6808DA8811818740126FDE40836FE0886078D828E838FF0125A99FE
:2025E000FC90620E747F5CF08D828E838FF0125A99FF547F601253077F8F82782D793A7AFC
:202600000012468FAF82800D78B879367A0012468FAE828E07E58124FDF8E6429AEF30E1CF
:20262000217401C0E0E4C0E0E58124FCF886820886830886F078E4791C7A0012468F1581E3
:202640001581E58124F9F5810246A1906207E0FF74014FF00246A1E582547FFE75F00DA43F
:2026600024E7FD740535F0FF7C008EF005F07401800225E0D5F0FBFE906207E04EF0740B76
:202680002DFAE43FFB8C068A828B838EF0125A99FAA3125A99C423CAC423541F6ACA541F72
:2026A000CA6ACAFB906210EAF074022DFDE43FFF8D828F838CF0125A99FD530503BD020BBF
:2026C000906212E0FF74404FF08009906212E0FF74BF5FF00246A1E582547FFE75F00DA4FF
:2026E00024E7FD740535F0FF7C008EF005F07401800225E0D5F0FBFE906209E04EF0740BF4
:202700002DFAE43FFB8C068A828B838EF0125A99FAA3125A99C423CAC423541F6ACA541FF1
:20272000CA6ACAFB906213EAF074022DFDE43FFF8D828F838CF0125A99FD530503BD020B3B
:20274000906215E0FF74404FF08009906215E0FF74BF5FF00246A1C082E5812404F581245C
:20276000FCF8747F56FEE58124FDF8A606EE75F00DA424E7FC740535F0FEA8811818A60449
:2027800008A606087600A881181886820886830886F0E4125763A8811818740226FAE4088C
:2027A00036FD0886078A828D838FF0125A99FE4306048A828D838FF0EE125763A8811818B8
:2027C000740326FDE40836FE0886078D828E838FF0E4125763A3125763A3125763A881183C
:2027E000180426FDE40836FE0886078D828E838FF0E58124FCF8E6125763A8811818740940
:2028000026FDE40836FE0886078D828E838FF0E4125763A3125763A8811818740B26FDE443
:202820000836FE088607E58124FDF8E675F002A42425F582747E35F0F583E493FBA3E4937C
:20284000FC8D828E838FF0EB125763A3EC1257637402559AFFAE9A74FD5EF59AE58124FD3A
:20286000F890620EE6F0E58124FDF8E6700FC007784B79267A0012468FD0078033E5812408
:20288000FCF8E630E716E58124FCF88682C007785779267A0012468FD0078014E58124FC24
:2028A000F88682C00778D779267A0012468FD007EF429AE58124FBF5810246A1AF82747F58
:2028C0005F75F00DA424E7FD740535F0FE7C0074022DFDE43EFE8D828E838CF07402125728
:2028E000638F82785779277A0012468F0246A1AF82747F5F75F00DA424E7FD740535F0FE6E
:202900007C0074022DFDE43EFE8D828E838CF074011257638F82785779277A0012468F02BB
:2029200046A1AF82747F5F75F00DA424E7FD740535F0FE7C0074022DFDE43EFE8D828E8317
:202940008CF0E41257638F82785779277A0012468F0246A1AF82747F5F75F00DA424E7FDE0
:20296000740535F0FE7C0074022DFDE43EFE8D828E838CF074031257638F82785779277AA6
:202980000012468F0246A1906207E0FF74FE5FF090621174C0F00246A1AF82906210E4F0B7
:2029A000747F5FF5F005F07401800225E0D5F0FBF4FF906207E0FEEF5EF09062117408F0B9
:2029C0000246A1AF82906213E4F0747F5FF5F005F07401800225E0D5F0FBF4FF906209E04E
:2029E000FEEF5EF09062147408F00246A1AF82747F5FFD75F00DA424E7FC740535F0FE7B8D
:202A00000074022CFCE43EFE8C828E838BF0125A99FA5302FB8C828E838BF0EA125763744B
:202A200002559AFEAC9A74FD5CF59A90620EEDF0ED700FC006788779297A0012468FD0061E
:202A40008024EF30E7118F82C006789979297A0012468FD006800F8F82C00678C379297A3D
:202A60000012468FD006EE429A0246A1E5812406F581AF82747F5F75F00DA424E7FE7405C5
:202A800035F0FF7D007402559AFCAB9A74FD5BF59A74032EFEE43FFF8E828F838DF0E581CA
:202AA00024FBF8125A99F6A3125A9908F6A3125A9908F68E828F838DF0E4125763A312575D
:202AC00063A3125763EC429AE58124FBF8E608466052E58124FBF8740826FDE40836FE08B5
:202AE00086078D828E838FF0125A99FBA3125A99FC5303FE8D828E838FF0EB125763A3ECCD
:202B0000125763E58124FBF886820886830886F0125A991818F6A3125A9908F6A3125A995C
:202B200008F680A4E58124FAF5810246A1AF82747F5FFE90620EF0EE7018E58124FDF8E644
:202B4000604E9005E6E4F0906211E0FE74214EF0803EEF30E71EE58124FDF8E6600B906220
:202B600011E0FF74104FF08027906211E0FF74EF5FF0801CE58124FDF8E6600B906214E015
:202B8000FF74204FF08009906214E0FF74DF5FF00246A1AF82747F5FFE24FB500280247460
:202BA00002559AFEAD9A74FD5DF59AC0067401C0E08F82782D792B7A0012468F1581D00680
:202BC000EE429A0246A1C082E5812408F58124F8F8747F56FD75F00DA424E7FC740535F0E3
:202BE000FEA8811818A60408A606087600ED24FB5003022DCCC005E58124FDF8740226FA6E
:202C0000E40836FD0886078A828D838FF0125A99FAD00520E203022DCC7402559AFFAA9AE9
:202C200074FD5AF59AE58124F3F8E60846602CA881181886820886830886F07401125763D4
:202C4000C007C0E0E58124F6F88682782D792B7A0012468F1581D007022DC9A8811818869F
:202C6000820886830886F0E4125763C007C005C0E0E58124F5F88682782D792B7A001246CD
:202C80008F1581D005D007A8811818E58124F9F9740326F7E4083609F70809E6F7E5812460
:202CA000F9F886820886830886F0125A99FEA3125A99FCA3125A99FBEE4C7003022DAF7443
:202CC000082EFEE43CFC8E828C838BF0E58124FCF8125A99F6A3125A9908F6E58124FCF86D
:202CE00008E620E003022DAFC007E58124FBF874FE56FA0886078E828C838BF0EA1257631A
:202D0000A3EF125763E58124F8F886820886830886F0125A99FAA3125A99FEA3125A99FFF8
:202D200074082AFAE43EFE8A828E838FF0125A99FAA3125A99FEEAD00730E329C007C00509
:202D40007401C0E0E4C0E0E58124FAF886820886830886F078E4791C7A0012468F158115CA
:202D600081D005D007E58124F9F886820886830886F0125A99FBA3125A99FCA3125A99FECA
:202D80008B828C838EF0125A99FBA3125A99FCA3125A99FEE58124F9F8868208868308862D
:202DA000F0EB125763A3EC125763A3EE125763ED6017E58124F8F8747F56F582C007787A5D
:202DC000793F7A0012468FD007EF429AE58124F7F5810246A10246A1E582547FFE75F00DC5
:202DE000A424E7FD740535F0FC7F00EE24FB500590000080108D828C838FF0125A99FD7F6E
:202E0000008D828F830246A1E582906200F00246A1AF8253077F7402559AFEAD9A74FD5DF4
:202E2000F59A90620EEFF0EF700A906211E0FF5307028009906211E0FD74015DFFEE429A79
:202E40007E008F828E830246A105810581AD82AE83AFF0A88118E4F608F6ED4E605B740853
:202E60002DFAE43EFB8F048A828B838CF0125A99FAA3125A99FBEA54607004EB30E00280B4
:202E80003874062DFAE43EFB8F048A828B838CF0125A99FAA3125A99FBA88118EA26F6EB3F
:202EA0000836F68D828E838FF0125A99FDA3125A99FEA3125A99FF80A1A8811886820886F8
:202EC00083158115810246A105810581AD82AE83AFF0ED4E7003022FA274082DFAE43EFB0E
:202EE0008F048A828B838CF0A88118125A99F6A3125A9908F6C005C006C007E58124FCF8F7
:202F0000E58124F7F9E756FE09E70856FFE58124F5F8E6B5060E08E6B50709D007D006D059
:202F200005022FA2E58124FCF874FE56FE0886078A828B838CF0EE125763A3EF12576343EF
:202F400006808A828B838CF0EE125763A3EF125763EED007D006D00530E330C005C006C03F
:202F600007E58124F2F886020886030886048A828B838CF0125A99FF4307028A828B838C9F
:202F8000F0EF125763D007D006D0058D828E838FF0125A99FDA3125A99FEA3125A99FF0214
:202FA0002ED28D828E838FF0158115810246A1C082C083C0F0E5812404F5817C00C004E5FF
:202FC0008124F9F8740626FAE40836FB0886048A828B838CF0125A99FFA3125A99FEE5816C
:202FE00024F3F8C3EF96EE0896D004500E8F028E03A88118A60208A603800EE58124F4F8FC
:20300000A98119E6F70809E6F7C004E58124F3F8A9811919E6C397F608E60997F6E58124C9
:20302000F9F8740626FAE40836FB0886048A828B838CF0125A99FEA3125A99FFA8811818BD
:20304000EEC396FEEF0896FF8A828B838CF0EE125763A3EF125763E58124F9F8740326FDDC
:20306000E40836FE0886078D828E838FF0125A99FAA3125A99FBA3125A99FCC007C006C069
:2030800005C004E58124FAF8E6C0E008E6C0E0E58124EFF8E6C0E08A828B838CF0780C794D
:2030A0001F7A0012468F158115811581D004D005D006D0078D828E838FF0125A99FAA31225
:2030C0005A99FBA3125A99FCA8811818E62AFA08E63BFB8D828E838FF0EA125763A3EB12E2
:2030E0005763A3EC125763D004E58124F4F8E60846605AE58124FAF8740826FDE40836FE48
:203100000886078D828E838FF0125A99FAA3125A99FB5302EE8D828E838FF0EA125763A39E
:20312000EB125763EA30E303430402E58124FAF886820886830886F0125A991818F6A3129C
:203140005A9908F6A3125A9908F6022FBDE58124F3F8E66031E58124FAF8740826FDE408F7
:2031600036FE0886078D828E838FF0125A99FAA3125A99FB4302108D828E838FF0EA1257FE
:2031800063A3EB125763E58124FAF8740626FDE40836FE0886078D828E838FF0125A99FE02
:2031A000A3125A99FF4E602EE58124FAF8740826FAE40836FB0886058A828B838DF0E581C7
:2031C00024FDF8125A99F6A3125A9908F6E58124FDF8E630E25EC004E58124F9F87408267F
:2031E000FFE40836FE0886058F828E838DF0125A99FBA3125A99FA5303FE8F828E838DF0E9
:20320000EB125763A3EA125763EBD00430E303430402E58124FAF886820886830886F0125B
:203220005A991818F6A3125A9908F6A3125A9908F60232AEE58124F3F8E66072EE4F602756
:20324000E58124FDF8E620E11EE58124FDF8748046FE0886078A828B838DF0EE125763A3AA
:20326000EF1257634304048A828B838DF0125A99FEA3125A99FF5306FE8A828B838DF0EE2B
:20328000125763A3EF125763EE30E303430402E58124FAF886820886830886F0125A991887
:2032A00018F6A3125A9908F6A3125A9908F6E58124F6F8E675F00DA424E7FE740535F0FF9A
:2032C0008E828F83A3A3A3E58124FAF8E6F008E6A3F008E6A3F08C82E58124F9F581024640
:2032E000A1E5812407F58124FDFF7E007D409005EAE0FAA3E0FBA3E0FCC007C006C00574AF
:2033000020C0E0E4C0E07420C0E0E4C0E08A828B838CF078C8792E7A0012468FAD82AE8373
:20332000AFF0E58124F9F581A8811818A60508A60608A6079005EAA8811818E6F008E6A349
:20334000F008E6A3F0A8811818E608466027A8811818740626FAE40836FB0886048A828BAF
:20336000838CF0125A99FEA3125A99FFC3EE9408EF9400500675820102351FA8811818E5F2
:203380008124FAF9740326F7E4083609F70809E6F7E58124FAF886820886830886F0125A72
:2033A00099FDA3125A99FEA3125A99FFC004C003C0027408C0E0E4C0E0C0E08D828E838FF2
:2033C000F0780C791F7A0012468F158115811581D002D003D0048A828B838CF0125A99FEAC
:2033E000A3125A99FFEE24F8FEEF34FFFF8A828B838CF0EE125763A3EF125763A8811818F6
:20340000740826FDE40836FE0886078D828E838FF0125A99FBA3125A99FC5303FE8D828E24
:20342000838FF0EB125763A3EC125763EB30E309E58124FDF8E64402F6E58124FAF886824C
:203440000886830886F0125A99FDA3125A99FEA3125A99FF74062DFAE43EFB8F048A828BA6
:20346000838CF0125A99701274072DFDE43EFE8D828E838FF0125A99603C906211E0FF746B
:20348000404FF0E58124FAF886820886830886F0125A99FDA3125A99FEA3125A99FF8D823C
:2034A0008E838FF0125A99FD30E7047F0280027F019005E6EFF0E58124FAF88682088683ED
:2034C0000886F0125A99FDA3125A99FEA3125A99FF74082DFDE43EFEE58124FAF8868208CD
:2034E00086830886F0ED125763A3EE125763A3EF125763A881181886820886830886F012CF
:203500005A99FDA3125A99FEA3125A99FF9005EAEDF0EEA3F0EFA3F0E58124FDF88682E5A3
:203520008124F9F5810246A1E5812405F581A88118187600A8811876009005EAE0FBA3E026
:20354000FCA3E0FD906216E0FAA881A602EB4C70067582010236AF74082BFAE43CFE8D075D
:203560008A828E838FF0E58124FCF8125A99F6A3125A9908F6E58124FCF8E6546070030203
:20358000360BC003C004C005E58124F9F8748046FC0886058A828E838FF0EC125763A3ED76
:2035A0001257635304FE8A828E838FF0EC125763A3ED125763ECD005D004D00330E306A811
:2035C0008118187602A88186078F061FEE6006906220E080F48B828C838DF0125A99FAA363
:2035E000125A99FEA3125A99FF9005EAEAF0EEA3F0EFA3F0906211E0FF74484FF09005E66D
:20360000E4F0A881181886820236AF8B828C838DF0C005C004C0037849792E7A0012468FE0
:20362000AE82AF83D003D004D005E581F824FCF9E6F7097700E58124FCF8C3EE96EF089686
:20364000500575820180689005F2E0FEA3E0FFE58124FCF8C3E69E08E69F5005A8811876F0
:2036600001A88118E6C0E0E58124FBF8E6C0E008E6C0E0E4C0E08B828C838DF078AF792F05
:203680007A0012468FAF82E58124FCF581A8811818A607A88118E660079005E6E4F0800930
:2036A000906211E0FF74404FF0A88118188682E58124FBF5810246A1E581240CF58190054F
:2036C000EA24F8F8E0F6A3E008F6A3E008F69005F2E58124FBF8E0F6A3E008F6E58124FD32
:2036E000F87600A88118187600906211E0FA20E10A9005E6E0FABA020280067582000239DA
:2037000085E58124F8F8E608467005F582023985E58124F8F8740826FAE40836FB08860405
:203720008A828B838CF0125A99FAA3125A99FBEA20E606758200023985E58124F8F8E6083C
:20374000467003023931E58124F8F8740626FAE40836FB0886048A828B838CF0125A99FBEB
:20376000A3125A99FCE58124FBF8C3EB96EC0896500AA88118A60308A604800EE58124FB51
:20378000F8A98119E6F70809E6F7E58124FBF8A98119E6C397F608E60997F6E58124F8F82F
:2037A000740626FAE40836FB0886048A828B838CF0125A99FEA3125A99FFA88118EEC396F8
:2037C000FEEF0896FF8A828B838CF0EE125763A3EF125763E58124F8F8E58124F5F9740348
:2037E00026F7E4083609F70809E6F7E58124F5F886820886830886F0125A99FDA3125A99E4
:20380000FEA3125A99FFC004C003C002E58124FCF8E6C0E008E6C0E0C005C006C0077582DF
:203820000078F9791F7A0012468FE58124FBF581D002D003D004E58124F5F886820886831A
:203840000886F0125A99FDA3125A99FEA3125A99FFA88118E62DFD08E63EFEE58124F5F8A9
:2038600086820886830886F0ED125763A3EE125763A3EF1257638A828B838CF0125A99FAA8
:20388000A3125A99FB4A6003023924E58124F8F8740826FDE40836FE0886078D828E838FFC
:2038A000F0125A99FDA3125A99FEED30E11AE58124FBF8E608466079E58124FDF87601E5F3
:2038C0008124FBF8E4F608F6E58124F8F8740826FDE40836FE0886078D828E838FF0125A9F
:2038E00099FBA3125A99FC5303FE8D828E838FF0EB125763A3EC125763EB30E308A8811844
:2039000018E64402F6E58124F8F886820886830886F0125A991818F6A3125A9908F6A312D6
:203920005A9908F6E58124FBF8E608466003023739E58124FBF8E608466007E58124FDF879
:2039400076019005EAE58124F8F8E6F008E6A3F008E6A3F0E58124FDF8E6700AE58124F8BE
:20396000F8E6084670109005E6E4F0906211E0FF740A4FF08009906211E0FF74024FF0A8E5
:203980008118188682E58124F4F5810246A190620EE4F0906211E0FF30E209906211E4F0E9
:2039A0009005E6F0EF30E40B9062117480F09005E6E4F0EF30E0489005E6E0700D78E17967
:2039C000327A0012468FAF82800D782879357A0012468FAE828E07EF30E11EC0077401C008
:2039E000E0E4C0E09005E775F00078E4791C7A0012468F15811581D007EF30E002802B7809
:203A0000B879367A0012468FAE828E07EF30E11A7401C0E0E4C0E09005E775F00078E479B0
:203A20001C7A0012468F158115810246A1C082E5812409F581A88118187600E58124F7F861
:203A4000747F5675F00DA424E7FC740535F0FB7D00740B2CFAE43BFE8D078A828E838FF0F8
:203A6000E58124FCF8125A99F6A3125A9908F68C828B838DF0125A996006758200023DBA33
:203A800074032CFCE43BFB8C828B838DF0125A99FAA3125A99FEA3125A99FFEA4E601A7462
:203AA000082AFAE43EFE8A828E838FF0125A99FAA3125A99FEEA20E606758200023DBAE5AE
:203AC0008124F7F8E58124FBF9747F56F78C828B838DF0125A99FAA3125A99FEA3125A99AE
:203AE000FFEA4E7003023DAB74062AFAE43EFE8A828E838FF0E58124F8F8125A99F6A312AE
:203B00005A9908F6E58124F8F8E58124FCF9C3E69708E609975014E58124F8F886060886F5
:203B200007A88118A60608A607800EE58124FCF8A98119E6F70809E6F7E58124FCF8A9811A
:203B400019E6C397F608E60997F68C828B838DF0125A99FAA3125A99FEA3125A99FFE58147
:203B600024F8F874062AF6E43E08F608A607E58124F8F886820886830886F0125A99FEA30B
:203B8000125A99FFA88118EEC396FEEF0896FFE58124F8F886820886830886F0EE12576344
:203BA000A3EF1257638C828B838DF0125A99FAA3125A99FEA3125A99FF74032AFAE43EFE07
:203BC0008A828E838FF0125A99FAA3125A99FEA3125A99FFC005C004C003E58124FCF8E64D
:203BE000C0E008E6C0E0C002C006C007E58124F3F8868278F9791F7A0012468FE58124FBDC
:203C0000F581D003D004D0058C828B838DF0125A99FAA3125A99FEA3125A99FFE58124F84B
:203C2000F874032AF6E43E08F608A607E58124F8F886820886830886F0125A99FAA3125A01
:203C400099FEA3125A99FFA88118E62AFA08E63EFEE58124F8F886820886830886F0EA12A4
:203C60005763A3EE125763A3EF1257638C828B838DF0125A99FAA3125A99FEA3125A99FFEA
:203C8000C004C003C00574062AFBE43EFC8F058B828C838DF0125A99FBA3125A994BD00526
:203CA000D003D0046003023D9E74082AFAE43EFE8A828E838FF0125A99FAA3125A99FEEA32
:203CC00030E116E58124FCF8E608467003023DABE58124FCF8E4F608F68C828B838DF012AD
:203CE0005A99FAA3125A99FEA3125A99FFE58124F8F874082AF6E43E08F608A607E5812415
:203D0000F8F886820886830886F0125A99FEA3125A99FF5306FEE58124F8F8868208868388
:203D20000886F0EE125763A3EF1257638C828B838DF0125A99FAA3125A99FEA3125A99FF08
:203D400074082AFAE43EFE8A828E838FF0125A99FAA3125A99FEEA30E308A8811818E644DA
:203D600002F68C828B838DF0125A99FAA3125A99FEA3125A99FF8A828E838FF0125A99FACB
:203D8000A3125A99FEA3125A99FF8C828B838DF0EA125763A3EE125763A3EF125763E58166
:203DA00024FCF8E608466003023ACD906211E0FF74014FF0A88118188682E58124F6F5815E
:203DC0000246A1C082E581240AF58124FDF87600E58124F6F8747F5675F00DA424E7FC74CD
:203DE0000535F0FDA8811818A60408A605087600A8811818740326FAE40836FE0886078A39
:203E0000828E838FF0E58124F7F8125A99F6A3125A9908F6A3125A9908F6E58124F7F8E671
:203E200008467006758201023F71C002C006C007E58124F4F8740826FAE40836FE088607FE
:203E40008A828E838FF0125A99A3125A99D007D006D00230E03DA8811818868208868308D3
:203E600086F07401125763906214E58124FAF8E0F6E58124FAF8E620E513906214E5812429
:203E8000FAF8E0F6E58124FAF8742046F0758200023F71C002C006C007906217E0FE7F00B6
:203EA000906216E0FA7D004207ED4206E58124F8F8A60708A606E58124F4F88682088683BB
:203EC0000886F0C0027849792E7A0012468FAE82AF83D002E58124F8F8C3EE96EF0896D087
:203EE00007D006D0025006758201023F71A8811818740B26FBE40836FC0886058B828C834D
:203F00008DF0125A99FBA3125A99FCE58124FBF8C3E69B08E69C5007E58124FDF876018A5E
:203F2000828E838FF0125A99FAA3125A99FEA3125A99FFE58124FDF8E6C0E0E58124FAF8A2
:203F4000E6C0E008E6C0E0E58124F3F8E6C0E08A828E838FF078AF792F7A0012468FAF8255
:203F6000E58124FCF581906214E0FE74FE5EF08F82E58124F5F5810246A1AF82747F5F75BA
:203F8000F00DA424E7FD740535F0FC7E0090620EEFF0906214E0FB30E609906214E0FA742D
:203FA000BF5AF0EB30E209906214E0FA74FB5AF0EB30E0378F82C006C005C00478C3793DD6
:203FC0007A0012468FAF82D004D005D006EF30E11A7401C0E0E4C0E08D828C838EF078E425
:203FE000791C7A0012468F158115810246A1AF82747F5F75F00DA424E7FD740535F0FC7EFD
:204000000090620EEFF0906211E0FB30E509906211E0FA74DF5AF0EB30E209906211E0FA68
:2040200074FB5AF0EB20E0378F82C006C005C004782D793A7A0012468FAF82D004D005D0E2
:2040400006EF30E11A7401C0E0E4C0E08D828C838EF078E4791C7A0012468F15811581028B
:2040600046A10581906202E0FF906207E05207906204E0FE906209E05206A881A606906200
:2040800006E0FD90620BE0FC5205EF6059EF30E011C007C005788E79397A0012468FD005DB
:2040A000D0077C01C0058CF005F07A017B008006EA2AFAEB33FBD5F0F78F057E00ED5202C4
:2040C000EE5203D005EA4B60178C82C007C005C00478EE793F7A0012468FD004D005D007BF
:2040E0000CBC060040BEA881E660477E01C0058EF005F07B017C008006EB2BFBEC33FCD508
:20410000F0F7A8811886027D00EA5203ED5204D005EB4C60178E82C007C006C005787A79A0
:204120003F7A0012468FD005D006D0070EBE060040BBED30E21DC007C00578DC79207A0081
:2041400012468F90000878A5791C7A0012468FD005D007ED30E114900004C007C00578A5D2
:20416000791C7A0012468FD005D0078D06EE30E014900002C007C00578A5791C7A00124656
:204180008FD005D007EF7008A881E67003ED60047F0180027F008F8215810246A120921BCC
:2041A00090000A75F040783079B27A0112468FAE82AF83EE4F60047F0080027F01EF339550
:2041C000E0FE8F828E830246A1AE82AF83BE8105BF00028006BE8210BF000D7404558DFF94
:2041E0007E008F828E8380039000000246A1AE82AF83BE8005BF00028008BE816ABF006766
:20420000801AAF8C74FD5FF58CAFF474FB5FF5F4AFFE74FB5FF5FE900001804EE58124FCCB
:20422000F8E60846602EE58D20E237E4C0E0C0E090000A75F040787179B17A0112468F152C
:20424000811581AF8A74FB5FF58AC2EB438D04439A10800EAF8D74FB5FF58DAF9A74EF5F2E
:20426000F59A90000180039000000246A120931B90000A75F040783079B27A0112468FAE32
:2042800082AF83EE4F60047F0080027F01EF3395E0FE8F828E830246A1AE82AF83BE810502
:2042A000BF00028006BE8210BF000D7408558DFF7E008F828E8380039000000246A1AE8272
:2042C000AF83BE8005BF00028008BE816ABF0067801AAF8C74FD5FF58CAFF474F75FF5F4D5
:2042E000AFFE74F75FF5FE900001804EE58124FCF8E60846602EE58D20E337E4C0E0C0E0E5
:2043000090000A75F040787179B17A0112468F15811581AF8A74F75FF58AC2EB438D084373
:204320009A10800EAF8D74F75FF58DAF9A74EF5FF59A90000180039000000246A1C020C0F6
:20434000E0C0F0C082C083C007C006C005C004C003C002C001C000C0D075D000C2AFE58A77
:2043600030E24190000A75F040783079B27A0112468FE5828583F045F060297410C0E0E451
:20438000C0E090000A75F040787179B17A0112468F15811581907E3175F0807893799C7ADF
:2043A0000112468FE58A30E34190000A75F040783079B27A0112468FE5828583F045F060EA
:2043C000297410C0E0E4C0E090000A75F040787179B17A0112468F15811581907E3D75F07C
:2043E000807893799C7A0112468FAF8A74FB5FF58AC2EBAF8A74F75FF58AC2EBD2AFD0D038
:20440000D000D001D002D003D004D005D006D007D083D082D0F0D0E0D02032AF82BF0D05C7
:20442000900000805E9006A5E07023C00790061E75F0007855798D7A0112468FAD82AE83EB
:204440001581ED4E702B9006A57401F08023BF0A20C00790061E75F0007855798D7A011284
:20446000468FAE82AF831581EE4F60059006A5E4F090098575F0007828799B7A0112468F25
:204480009000010246A105810581AD82AE83AFF07C01125A99FAA3125A99FBBA0005BB00FE
:2044A000028014BA6705BB00028071BA7906BB0003024618024634C007C006C0057870790C
:2044C000917A0112468FE582D005D006D0079006A4F0900726E4F0A3F090061E75F000C0D9
:2044E00007C006C005786E798E7A0112468FAA82AB83D005D006D007A88118A60208A60365
:20450000A88118B6FF1F08B6FF1B7C008D828E838FF07467125763A3E4125763EC70BA750E
:204520008201024645A88118B60A0608B600028042900726E0FAA3E0FBC3EA947FEB64803E
:2045400094805095C005C006C00790072674012AF0E43BA3F0EA24A6FAEB3406FBE58124BA
:20456000FCF886078A828B83EFF0D007D006D0050244D9C005C006C007900726E0FAA3E0B4
:20458000FB90072674012AF0E43BA3F0EA24A6F582EB3406F583E4F0C007C006C00574A61A
:2045A000C0E07406C0E0E4C0E09006A4E0C0E090000075F0007862799A7A0112468FE58159
:2045C00024FCF581D005D006D007900992E0FAA3E0FBA3E0FFC005E4C0E0C0E0C0E074853C
:2045E000C0E08A828B838FF07862799A7A0112468FAE82AF83E58124FCF581D005EE4FD0F3
:2046000007D006D0057023FC8D828E838FF07479125763A3E4125763EC600AE58124FBF8DB
:20462000B685028005758201801B900726E4F0A3F00244D98D828E838FF0E4125763A312DE
:204640005763758203158115810246A17480C0E07424C0E07406C0E0E4C0E090061E75F00E
:204660000078D4798C7A0112468FE58124FCF581E4C0E0C0E0C0E090098575F000787C79D7
:20468000917A0112468F1581158115810246A1C09FC8C0E0E9C0E0EA540F539FF0429FC854
:2046A00022D09F220246A10246A1900000E4F5F00246A10246A190618FE0FF7E00742C2F9E
:2046C000FFE43EFE7405C0E0E4C0E08F828E83125BA5AE82AF83158115818E820246A1AFB4
:2046E00082BF0B004005EF24E550057582FF8029C007784B794C7A0012468FD007EF24F5AE
:2047000075F005A490618F240BF0C0077834794C7A0012468FD0078F820246A1906173E03E
:20472000FE7F00906172E0FD7C004207EC42068F828E830246A1AE82AF838E047D00906156
:2047400072ECF0906173EFF00246A1906175E0FE7F00906174E0FD7C004207EC42068F82D0
:204760008E830246A1AE82AF838E047D00906174ECF0906175EFF00246A190618BE0E070B3
:204780000C430E107834794C7A0012468F906199E0FF30E0F8906198E024B7FF7410550E3F
:2047A000FEBE1014AE0E74EF5EF50EC007784B794C7A0012468FD007EF3395E0FE8F828EDE
:2047C000830246A1906196E0FF3395E0FEEF24B7FFEE34FFFE8F828E830246A1AE82AF830C
:2047E00090619674492EF00246A105810581906190E0FF906191E0FEBE0910907EF0E49356
:20480000FDA3E493FE8D828E8380667D007E007B007C00A88118EB24C0F6EC347E08F6A841
:2048200081188682088683A3A3E493FAC3EF9A401BA881188682088683E49318F6A3E4936F
:2048400008F6A881188682088683802574032BFBE43CFC0DBD00010EC3ED9411EE6480940E
:204860008040B0907EF0E493FEA3E493FF8E828F83158115810246A1AE82AF83907EF0E4C1
:2048800093FCA3E493FDC3EC9EED64808FF063F08095F040129061917409F0907EF2E493C5
:2048A000FD906190F080567C0F7D007A2D7B00EA24C0F582EB347EF583E493F8A3E493F9AE
:2048C000C3E89EE964808FF063F08095F0401D9061917469F0EA24C0F8EB347EF988828950
:2048E00083A3A3E493F9906190F08011EA24FDFAEB34FFFB1CBCFF011DED30E7B20246A1CB
:20490000E582FF600B906180E0FF74014FF08009906180E0FF74FE5FF00246A1E582FF6079
:204920000B906189E0FF74204FF08009906189E0FF74DF5FF00246A1E50E30E0059000003B
:2049400080469061AB743FF09061AC7455F090619674F8F09061FA7409F09061B27415F0A5
:204960009061AEE4F09061897440F0E0FF74204FF0906182E4F0906194747FF09061907450
:20498000D5F0430E019000010246A1C082C083C0F0906193E0FC20E1F8E50E20E709783449
:2049A000794C7A0012468F75E1EE75E1EEE58124F9F8860474022CF5D97C008C027B00E56A
:2049C0008124F9F8C3EA96EB08965020A88118188602088603088607EC2AFAE43BFB8A82C8
:2049E0008B838FF0125A99F5D90C80CF75D90075D9009000001581158115810246A1E50E32
:204A000020E742AEE27F00ACE38C05E42EFEED3FFFC007C0067834794C7A0012468FD006AE
:204A2000D007430E1074052EFEE43FFFACE27D00AAE38A03E4FA2CFCEB3DFDECC39EFCEDF1
:204A40009FFD20E7E77806794C7A0012468FE5828583F045F07005900002806E906193E03B
:204A6000FF30E505900002806175E1E97F00906193E0FE20E11A8F060FBE03005012900018
:204A800006C007787279527A0012468FD00780DE906193E0FF20E10C75E1EE75E1EE7E0187
:204AA0007F00800C906193E0FD20E1F87E007F00E50E30E411C007C006784B794C7A0012DB
:204AC000468FD006D0078E828F830246A1AD82AE83AFF0E58124FCF8E6C0E008E6C0E08D2B
:204AE000828E838FF0788B79497A0012468F15811581E58124FCF8868208868378FE794983
:204B00007A0012468FAE82AF830246A1C082C083C0F0E5D9FC2480500C75E1ED75E1ED90E4
:204B20000000024BFDEC24FB400C75E1ED75E1ED900000024BFD8C027B00EA24FEFAEB3446
:204B4000FFFBE58124F9F8C3E69A08E69B500C75E1ED75E1ED900000024BFD1C1C7B00C3E2
:204B6000EB9C5025C004E58124FDF88602088604088607EB2AFAE43CFC8A828C838FF0E59D
:204B8000D91257630BD00480D6E5D924B7FFE5D9FE30E740EF3395E0FDC006C004C007C0EB
:204BA0000575820478E579A77A0112468F15811581D004D00653067F7F00C004C006C00798
:204BC00075820378E579A77A0112468F15811581D004800B75E1ED75E1ED900000801E902D
:204BE0006193E0FF5307C0BF400D90619BE0E0700675E1ED75E1ED7F008C828F831581152A
:204C00008115810246A1906193E0FF30E40590000180039000000246A1906193E090000097
:204C20000246A1906193E0FF5307407E008F828E830246A1E50E20E70C75E1ED75E1ED7504
:204C4000E1E3430E809000010246A175E1EF75E1ED75E1EDAF0E747F5FF50E90000102468F
:204C6000A1AE82AF83E58124FBF8E608467006758202024F56C374109EE49F5003024F530B
:204C8000EE240A83F582EE241583F583E473B0E31E59945307427D53535353B8DBFD284C7E
:204CA0004C4D4D4D4F4E4E4E4F4F4F4F4E4E4E4FE58124FBF8860508860608860790618B66
:204CC000E0E07003FC80027C01EC3395E0FB8D828E838FF0EC125763A3EB1257637582006F
:204CE000024F56E58124FBF88605088606088607C007C006C00578B679467A0012468FAC90
:204D000082D005D006D0077B008D828E838FF0EC125763A3EB125763758200024F56E5815F
:204D200024FBF88605088606088607C007C006C005781C79477A0012468FAB82AC83D00570
:204D4000D006D0078D828E838FF0EB125763A3EC125763758200024F56E58124FBF886054F
:204D6000088606088607C007C006C005784B79477A0012468FAB82AC83D005D006D0078D69
:204D8000828E838FF0EB125763A3EC125763758200024F56E58124FBF88605088606088627
:204DA000078D828E838FF0E4125763A3125763906180E0FC30E0218D828E838FF0125A990C
:204DC000FBA3125A99FC4303018D828E838FF0EB125763A3EC125763906189E0FC30E521B0
:204DE0008D828E838FF0125A99FBA3125A99FC4303028D828E838FF0EB125763A3EC1257DA
:204E000063758200024F56E58124FBF88605088606088607C007C006C00578EA79477A0072
:204E200012468FAB82AC83D005D006D0078D828E838FF0EB125763A3EC1257637582000203
:204E40004F56E58124FBF88605088606088607C007C006C00578C479477A0012468FAB82A0
:204E6000AC83D005D006D0078D828E838FF0EB125763A3EC125763758200024F56E58124A8
:204E8000FBF88605088606088607C007C006C005787A79477A0012468FAB82AC83D005D005
:204EA00006D0078D828E838FF0EB125763A3EC125763758200024F56E58124FBF8860508B6
:204EC00086060886078D828E838FF0740B125763A3E4125763758200024F56E58124FBF859
:204EE00086050886060886078D828E838FF0741A125763A3E41257637582008059E5812458
:204F0000FBF88605088606088607907EF0E493FBA3E493FC8D828E838FF0EB125763A3EC7F
:204F2000125763758200802EE58124FBF88605088606088607907EC0E493FBA3E493FC8DEC
:204F4000828E838FF0EB125763A3EC12576375820080037582010246A1AE82AF83C3740732
:204F60009EE49F500302511DEE240A83F582EE240C83F583E47386C00F2C491DAA054F4F93
:204F8000505050515051E58124FCF8B6011308B6000F7834794C7A0012468F7582000251FE
:204FA00020E58124FCF8E60846700F784B794C7A0012468F758200025120758202025120E1
:204FC000E58124FCF8C3E6940B08E6648094804015E58124FCF8C3741A9674800886F06396
:204FE000F08095F05006758202025120E58124FCF886078F8278DF79467A0012468FAF8236
:20500000BFFF06758203025120758200025120E58124FCF886060886078E828F837836790D
:20502000477A0012468F758200025120E58124FCF886060886078E828F83786579477A0086
:2050400012468F758200025120E58124FCF8E654FC700408E66006758202025120E581248D
:20506000FCF8740156FE7F00E4BE0004BF000104FEB40100E433F582780079497A0012463D
:205080008FE58124FCF8740256FE7F00E4BE0004BF000104FEB40100E433F582781C7949B9
:2050A0007A0012468F7582008076907EF0E493FEA3E493FFE58124FCF8C3E69E08E664807F
:2050C0008FF063F08095F0401F907EC0E493FEA3E493FFE58124FCF8C3EE96EF6480088618
:2050E000F063F08095F050057582028033E58124FCF88682088683787879487A0012468FBE
:20510000758200801BE58124FCF8868208868378DC79477A0012468F75820080037582017F
:205120000246A1E5812405F581AE82AF83BE0B05BF000280030251BFE58124F4F8B6080EB9
:2051400008B6000AE58124F6F8E608467005758202806FE58124F6F8E58124FCF9E6F708A2
:2051600009E6F70809E6F7A88118E4F608F6E58124FCF8A98119E726FA09E70836FE0886C0
:2051800007A881187407C396FCE40896FDEC246AF582ED3461F583E0FD8A828E838FF01202
:2051A0005763A8811806B600020806A88118C3E6940808E66480948040B4758200800375D9
:2051C0008201E58124FBF5810246A1E5812404F581AE82AF83BE0B05BF0002800302526636
:2051E000E58124F5F8B6080E08B6000AE58124F7F8E608467005758202806EA88118E4F680
:2052000008F6A88118E58124FDF9E6246AF708E6346109F7E58124F7F886020886030886C1
:2052200007A881187407C396FDE40896FEED2AFAEE3BFB8A828B838FF0125A99FAE581247E
:20524000FDF88682088683EAF0A8811806B600020806A88118C3E6940808E66480948040AD
:20526000A17582008003758201E58124FCF5810246A1AE82AF83C2AF8E048F051EBEFF0161
:205280001FEC4D60030080F0D2AF0246A1AE82AF83C007C00678D479527A0012468FAC82E4
:2052A000AD83D006D007C007C006C005C00478D479527A0012468FAA82AB83D004D005D0B0
:2052C00006D007EAC39CFAEB9DFBC3EA9EEB9F40D50246A1850F828510830246A1AC11ADD7
:2052E000127E007F008C828D838EF0EF0246A175C6C0AFC674BF5FF5C6E59E20E6FB43C6E1
:2053000030E5C6B59EFB900000E595F0E4A3F0A3F0A3F0AC967D007E008E078D068C057C5B
:2053200000900000E0F8A3E0F9A3E0FAA3E0FB900000EC28F0ED39A3F0EE3AA3F0EF3BA3B9
:20534000F0AC977D008D078C067D007C00900000E0F8A3E0F9A3E0FAA3E0FB900000EC28FB
:20536000F0ED39A3F0EE3AA3F0EF3BA3F0900000E0FCA3E0FDA3E0FEA3E0FF900000ECF0B1
:2053800074012DA3F0E43EA3F0E43FA3F0900000E0A3E0A3E0FEA3E08E97900000E0A3E05E
:2053A000FDA3E0A3E08D96900000E0FCA3E0FDA3E0FEA3E0FF8C95D2AD0246A1C0E0C0826D
:2053C000C083C007C006C005C004C003C002C001C000C0D075D000C2AF900000E595F0E44A
:2053E000A3F0A3F0A3F0AC967D007E008E078D068C057C00900000E0F8A3E0F9A3E0FAA37E
:20540000E0FB900000EC28F0ED39A3F0EE3AA3F0EF3BA3F0AC977D008D078C067D007C000D
:20542000900000E0F8A3E0F9A3E0FAA3E0FB900000EC28F0ED39A3F0EE3AA3F0EF3BA3F0C8
:20544000900000E0FCA3E0FDA3E0FEA3E0FF900000ECF074012DA3F0E43EA3F0E43FA3F051
:20546000900000E0A3E0A3E0FEA3E08E97900000E0A3E0FDA3E0A3E08D96900000E0FCA3E8
:20548000E0FDA3E0FEA3E0FF8C957401250FF50FE43510F510E50F547F6002800B740125E2
:2054A00011F511E43512F5129009107401F0C2C7D2AFD0D0D000D001D002D003D004D005FC
:2054C000D006D007D083D082D0E03275E40975AF0075E644C2DED2B90246A1AE82AF83AD50
:2054E000E674FB5DF5E68EDC8FDD43E60475AF0043E6400246A1C020C0E0C0F0C082C083F1
:20550000C007C006C005C004C003C002C001C000C0D075D000C2B9AFAF74FD5FF5AFAFE6B8
:2055200074BF5FF5E6788579907A0112468FD2B9D0D0D000D001D002D003D004D005D006A6
:20554000D007D083D082D0F0D0E0D02032C020C0E0C0F0C082C083C007C006C005C004C0B2
:2055600003C002C001C000C0D075D0000581A88176009009CBE0FCA3E0FDA3E0FEE4C0E026
:20558000C0E0C0E08C828D838EF0125618158115811581605D74032CFAE43DFB8E078A82D6
:2055A0008B838FF0125A99FAA3125A99FBA3125A99FFC007C006C005C004C003C002C003B7
:2055C000C007D002D001D00012468FAA82D003D004D005D006D007A881EA46F68C828D83E8
:2055E0008EF0125A99FCA3125A99FDA3125A99FE808BA881E66002C2E81581D0D0D000D0E5
:2056000001D002D003D004D005D006D007D083D082D0F0D0E0D02032E58124FCC3C8C0E0A6
:20562000C082E608467006E5824583601218E58296F58208E58396428208E5F0964582D07D
:2056400082C8D0E0C822C020C0E0C0F0C082C083C007C006C005C004C003C002C001C00095
:20566000C0D075D000C2AFC2C07F008FF005F07D017E008006ED2DFDEE33FED5F0F7ABD17F
:205680007C00EB5205EC5206ED4E603E8FF005F07401800225E0D5F0FBF4F5D1EF75F003EE
:2056A000A42406F582740935F0F583E0FCA3E0FDA3E0FEEC4D60138C828D838EF0C0077827
:2056C00028799B7A0112468FD0070FBF0200409BD2AFD0D0D000D001D002D003D004D0059A
:2056E000D006D007D083D082D0F0D0E0D02032758120125C6CE582600302007E79BBE9442B
:2057000000601B7A01907F447813759309E493F2A308B800020593D9F4DAF27593FFE47842
:20572000FFF6D8FD7800E84400600A7900759300E4F309D8FC780FE84409600C790A900021
:2057400004E4F0A3D8FCD9FA9006A5E4F0E4F50FF510F511F512900000F0A3F0A3F0A3F0E5
:2057600002007E20F71130F6138883A88220F509F6A8837583002280FEF280F5F022C013F0
:20578000858113C082C083E5812405F581AF130FE5132403F8A607087600087640E5132479
:2057A000FCFD7E007F40E5132406F9A813088604E51324FCF886038CF0EBA4F709A7F0E52B
:2057C00013240604F98704A81308860374012DFAE43EFE8A828E838FF0125A998BF0A4FB41
:2057E000E5132403F8740126FDE40836FE0886078D828E838FF0125A99FDE51324FCF8860E
:20580000078DF0EFA42B2CF7E5132406F987060987078E828F83851381D01322C0138581CB
:2058200013058105810581AD82AE83AFF0E51324F8F8E6084670069000000258DCE513242C
:20584000FAF88602088603088604E51324F8F8A91309E6F70809E6F7A8130816B6FF020877
:2058600016A81308E60846604C8D828E838FF0E5132403F8125A99F6E5132403F8E660352C
:20588000C005C006C0078A828B838CF0125A99FFE5132403F8E6B507028008D007D006D05C
:2058A000058012D007D006D0050DBD00010E0ABA00A60B80A38D828E838FF0125A99FD338A
:2058C00095E0FF8A828B838CF0125A99FA3395E0FEEDC39AFDEF9EFF8D828F83851381D03C
:2058E000130246A1C013858113C082C083C0F005810581A813088602088603088604E51319
:2059000024FAF8E5132404F9E6F70809E6F7E5132404F88606088607E5132404F816B6FF71
:20592000020816EE4F60168A828B838CF0E51324FCF8E6125763A3AA82AB8380D1A813082B
:2059400086820886830886F0851381D0130246A1C013E581F5132408F581AD82AE83AFF0E9
:20596000E5132406F8A60508A60608A607E51324FAF8A91309E6F70809E6F70809E6F7E588
:205980001324F8F8E5132404F9E6F70809E6F7E5132404F88603088604E5132404F816B6E5
:2059A000FF020816EB4C6028A8130886820886830886F0125A99FCA31818A68208A6838DF5
:2059C000828E838FF0EC125763A3AD82AE8380BFE5132406F886820886830886F0851381F1
:2059E000D0130246A1C01385811378E279B37A0112468FD0130246A1C013858113AD82AE72
:205A000083AFF0E51324FCF8E6C0E0C005C006C007E4C0E0C0E0C0E09059E575F000782EDF
:205A200079697A0012468FAE82AF83E58124F9F5818E828F83D0130246A1C013858113E509
:205A40001324FAFFC007E51324FAF8E6C0E008E6C0E008E6C0E0E4C0E0C0E0C0E09059E50D
:205A600075F000782E79697A0012468FAE82AF83E58124F9F5818E828F83D0130246A1AAE5
:205A800082AB83125A996003A380F8C3E5829AF582E5839BF5830246A120F71430F6148847
:205AA00083A88220F507E6A88375830022E280F7E49322E022C013858113AE82E583FF3348
:205AC000E433FD6009C3E49EFBE49FFC80048E038F04E51324FCF808E630E70FE51324FCA6
:205AE000F8C3E496FE08E496FF800AE51324FCF88606088607C005C006C0078B828C8312B7
:205B00005B23AE82AF8315811581D005ED600DC3E49EFCE49FFD8C828D8380048E828F83C5
:205B2000D01322C013858113AE82AF837D007C00E51324FCF808E6235401FB7032E51324EA
:205B4000FCF808E618C625E0C63308F6E51324FCF8C3EE96EF08965011E51324FCF808E646
:205B600018C313C613C608F680050C8C0580C1E51324FCF8C3EE96EF0896400DE51324FCEE
:205B8000F8EEC396FEEF0896FFE51324FCF808E618C313C613C608F68D041DEC70D18E82C8
:205BA0008F83D01322C013858113AE82E583FF33E433FD6009C3E49EFBE49FFC80048E03C7
:205BC0008F04E51324FCF808E633E433FF600FE51324FCF8C3E496FA08E496FE800AE51333
:205BE00024FCF88602088606C007C005C002C0068B828C83125C1BAC82AE8315811581D05D
:205C000005D007EF6D600DC3E49CFDE49EFF8D828F8380048C828E83D01322C01385811369
:205C2000AE82AF837C007D007B10EF339200EFCE25E0CE33FFEDCC25E0CC33FD30000343D8
:205C40000401E51324FCF8C3EC96ED08964010E51324FCF8ECC396FCED0896FD430601EB01
:205C600014FAFB70C58E828F83D0132275820022C013858113AF8274302FFF24C6500B74FE
:205C8000072FFF30000474202FFFE51324F7F8E6C0E008E6C0E008E6C0E0E51324FAF8E638
:205CA000C0E008E6C0E008E6C0E08F82D002D001D00012468F158115811581D0130246A12F
:205CC000C013858113E582FFC4540FFEC007C020E51324F7F8E6C0E008E6C0E008E6C0E0F9
:205CE000E51324FAF8E6C0E008E6C0E008E6C0E0A20092F085F0208E827870795C7A0012E2
:205D0000468FE58124FAF581D020D00753070FE51324F7F8E6C0E008E6C0E008E6C0E0E5F2
:205D20001324FAF8E6C0E008E6C0E008E6C0E0A20092F085F0208F827870795C7A0012463F
:205D40008FE58124FAF581D0130246A1C013858113A9828704098705098706098707191958
:205D600019740429F87B20C003E626FAEF235401FBEA4203A603EC2CFCED33FDEE33FEEF94
:205D800033FF8602C000E51324FCF8C3EA96D000D0034012C000E51324FCF8EAC396FAD064
:205DA00000A602430401EB14FAFB70BBA70409A70509A70609A707D0130246A1C013858162
:205DC00013C082C083C0F0C0E0E581241FF581E513240AF87600C204E5132409F87680C08F
:205DE00020E4C0E0C0E0C0E0C0E0A8130886820886830886F008E6127723AB82E58124FC78
:205E0000F581D020EB6012D204A81308E6F608E6F608E6F608E6B2E7F6C02074FFC0E0C052
:205E2000E0747FC0E0744BC0E0A8130886820886830886F008E6127CF3AB82E58124FCF51F
:205E400081D020EB7003025FB97F00C007C020E4C0E0C0E07420C0E07441C0E0A81308863D
:205E6000820886830886F008E6127723AB82E58124FCF581D020D007EB703BC007C020E466
:205E8000C0E0C0E07420C0E07441C0E0A8130886820886830886F008E6127AA4A81308A658
:205EA0008208A68308A6F008F6E58124FCF581D020D0070F8095C007C020E4C0E0C0E0746D
:205EC00080C0E0743FC0E0A8130886820886830886F008E6127723AB82E58124FCF581D062
:205EE00020D007EB603BC007C020A81308E6C0E008E6C0E008E6C0E008E6C0E09000007586
:205F0000F0207441127B72A81308A68208A68308A6F008F6E58124FCF581D020D0071F80A3
:205F200095E5132409F8A60730043FC020E51324F5F8E6C0E008E6C0E008E6C0E0E51324E8
:205F4000F8F8E6C0E008E6C0E008E6C0E075822DD002D001D00012468F158115811581D09F
:205F600020E513240AF87601804030023DC020E51324F5F8E6C0E008E6C0E008E6C0E0E5CD
:205F80001324F8F8E6C0E008E6C0E008E6C0E075822BD002D001D00012468F15811581157B
:205FA00081D020E513240AF87601E51324FCF87600C200C201C202C203E51324FBF8B6FF83
:205FC00007E51324FBF876067B007D007E007F3FE51324FBF886048C02EA6048C002C020A0
:205FE000E4C0E0C0E07420C0E07441C0E08B828D838EF0EF127AA4C8E5132405C8A6820859
:20600000A68308A6F008F6E58124FCF581D020D002E5132405F886030886050886060886A6
:20602000071A80B5C020C003C005C006C007A8130886820886830886F008E6127848A81340
:2060400008A68208A68308A6F008F6E58124FCF581D020A8130886820886830886F008E60F
:20606000C020127CB9AB82AD83AEF0FFD020E513241BF8A60308A60508A60608A607E51323
:20608000241BF886820886830886F008E6C020127CE0AA82AD83AEF0FFD020C020C002C0AB
:2060A00005C006C007A8130886820886830886F008E6127B67AB82AD83AEF0FFE58124FC92
:2060C000F581D020E513241FF8A60308A60508A60608A607E5132405F8E513240BF67C00B0
:2060E000E513241BF8E608460846084670030261728C070CE5132405F8EF26F9C004C0010E
:20610000C020740AC0E0E4C0E0C0E0C0E0E513241BF886820886830886F008E61278EAABEA
:2061200082E58124FCF581D020D00174302BF7C020740AC0E0E4C0E0C0E0C0E0E513241B61
:20614000F886820886830886F008E61279ADAB82AD83AEF0FFE58124FCF581D020D004E5EB
:2061600013241BF8A60308A60508A60608A6070260E0ECFF700DEC04FFE5132405F8EC264C
:20618000F87630E51324FBF88604E5132423F8A6078C05ED70058D0402628CC007C005C024
:2061A00020E513241FF8E6C0E008E6C0E008E6C0E008E6C0E090000075F0207441127B7293
:2061C000AA82AB83AEF0FFE58124FCF581D020E513241FF8A60208A60308A60608A607E502
:2061E00013241FF886820886830886F008E6C020127CB9AA82AB83AEF0FFD020E513241B87
:20620000F8A60208A60308A60608A607E5132423F88607E5132423F806E5132405F8EF2695
:20622000F9E513241BF8860374302BF7E513241BF886820886830886F008E6C020127CE0E5
:20624000AA82AB83AEF0FFD020C020C002C003C006C007E513241FF886820886830886F09B
:2062600008E6127B67AA82AB83AEF0FFE58124FCF581D020D005E513241FF8A60208A603F8
:2062800008A60608A6071DD0070261938F06E51324FBF8E6600AE51324FBF8E604FD80023F
:2062A0007D008E03ED2BFDFE2004062002033003010E30000302656BE51324FCF8C3EC96D2
:2062C000400302656B200103026407300447C007C006C020E51324F5F8E6C0E008E6C0E013
:2062E00008E6C0E0E51324F8F8E6C0E008E6C0E008E6C0E075822DD002D001D00012468FE4
:20630000158115811581D020D006D007E513240AF8060263A5300246C007C006C020E51313
:2063200024F5F8E6C0E008E6C0E008E6C0E0E51324F8F8E6C0E008E6C0E008E6C0E0758205
:206340002BD002D001D00012468F158115811581D020D006D007E513240AF806804730033B
:2063600044C007C006C020E51324F5F8E6C0E008E6C0E008E6C0E0E51324F8F8E6C0E00827
:20638000E6C0E008E6C0E0758220D002D001D00012468F158115811581D020D006D007E534
:2063A00013240AF806E513240AF88605E51324FCF886048C031CC3EE9B4003026647C007AB
:2063C000C006C005C004C020E51324F5F8E6C0E008E6C0E008E6C0E0E51324F8F8E6C0E051
:2063E00008E6C0E008E6C0E0758230D002D001D00012468F158115811581D020D004D005A5
:20640000D006D0070D80ACE513240AF88603E51324FCF88602C0078A071AC3EE9FD007506E
:2064200049C007C006C003C002C020E51324F5F8E6C0E008E6C0E008E6C0E0E51324F8F86A
:20644000E6C0E008E6C0E008E6C0E0758220D002D001D00012468F158115811581D020D0A7
:2064600002D003D006D0070B80ABE513240AF8A603E51324FCF8A60230044DC007C006C017
:2064800003C020E51324F5F8E6C0E008E6C0E008E6C0E0E51324F8F8E6C0E008E6C0E00846
:2064A000E6C0E075822DD002D001D00012468F158115811581D020D003D006D007E513248A
:2064C0000AF8EB04F602665530024DC007C006C003C020E51324F5F8E6C0E008E6C0E00844
:2064E000E6C0E0E51324F8F8E6C0E008E6C0E008E6C0E075822BD002D001D00012468F15D7
:206500008115811581D020D003D006D007E513240AF8EB04F6026655200303026655C007F4
:20652000C006C003C020E51324F5F8E6C0E008E6C0E008E6C0E0E51324F8F8E6C0E008E6C7
:20654000C0E008E6C0E0758220D002D001D00012468F158115811581D020D003D006D0076A
:20656000E513240AF8EB04F6026655300447C007C006C020E51324F5F8E6C0E008E6C0E056
:2065800008E6C0E0E51324F8F8E6C0E008E6C0E008E6C0E075822DD002D001D00012468F41
:2065A000158115811581D020D006D007E513240AF806026655300246C007C006C020E513BE
:2065C00024F5F8E6C0E008E6C0E008E6C0E0E51324F8F8E6C0E008E6C0E008E6C0E0758263
:2065E0002BD002D001D00012468F158115811581D020D006D007E513240AF8068057300389
:2066000054C007C006C020E51324F5F8E6C0E008E6C0E008E6C0E0E51324F8F8E6C0E00874
:20662000E6C0E008E6C0E0758220D002D001D00012468F158115811581D020D006D007E591
:2066400013240AF806800EE513240AF8A605E51324FCF8A604EF14FDE513240AF88604E55D
:20666000132405F8ED26F98703C007C006C005C004C020E51324F5F8E6C0E008E6C0E00835
:20668000E6C0E0E51324F8F8E6C0E008E6C0E008E6C0E08B82D002D001D00012468F1581C9
:2066A00015811581D020D004D005D006D0070C8D031DEB70AAE513240AF8A604E51324FBCB
:2066C000F8E67003026781C007C006C004C020E51324F5F8E6C0E008E6C0E008E6C0E0E5BE
:2066E0001324F8F8E6C0E008E6C0E008E6C0E075822ED002D001D00012468F158115811511
:2067000081D020D004D006D007E513240AF8EC04F6E513240AF88605E51324FBF886048CB5
:20672000031CEB60558F030FE5132405F8EB26F98703C007C006C005C004C020E51324F545
:20674000F8E6C0E008E6C0E008E6C0E0E51324F8F8E6C0E008E6C0E008E6C0E08B82D00212
:20676000D001D00012468F158115811581D020D004D005D006D0070D80A5E513240AF8A693
:2067800005300068E51324FCF8C3EE96505EE513240AF88607E51324FCF886058D041DC3A0
:2067A000EE9C5041C007C006C005E51324F5F8E6C0E008E6C0E008E6C0E0E51324F8F8E6CF
:2067C000C0E008E6C0E008E6C0E0758220D002D001D00012468F158115811581D005D0061F
:2067E000D0070F80B7E513240AF8A607E5132409F8B6800302691FE51324F5F8E6C0E0083A
:20680000E6C0E008E6C0E0E51324F8F8E6C0E008E6C0E008E6C0E0758265D002D001D000E7
:2068200012468F158115811581E513240AF806E5132409F8E630E741E51324F5F8E6C0E0A1
:2068400008E6C0E008E6C0E0E51324F8F8E6C0E008E6C0E008E6C0E075822DD002D001D0D7
:206860000012468F158115811581E513240AF806E5132409F8C3E496F6E5132409F8C2D547
:2068800075F00AE630E704B2D5F4048430D502F4042430FFE51324F5F8E6C0E008E6C0E016
:2068A00008E6C0E0E51324F8F8E6C0E008E6C0E008E6C0E08F82D002D001D00012468F151C
:2068C0008115811581E513240AF806E5132409F875F00AE6C2D530E704D2D5F40484E5F0CB
:2068E00030D502F4042430FFE51324F5F8E6C0E008E6C0E008E6C0E0E51324F8F8E6C0E009
:2069000008E6C0E008E6C0E08F82D002D001D00012468F158115811581E513240AF806E525
:2069200013240AF88682851381D0130246A1C013858113C082C083C0F0E5812418F581E513
